{
  "contractName": "Damage",
  "abi": [
    {
      "inputs": [],
      "stateMutability": "nonpayable",
      "type": "constructor"
    },
    {
      "anonymous": false,
      "inputs": [
        {
          "indexed": true,
          "internalType": "address",
          "name": "owner",
          "type": "address"
        },
        {
          "indexed": true,
          "internalType": "address",
          "name": "spender",
          "type": "address"
        },
        {
          "indexed": false,
          "internalType": "uint256",
          "name": "value",
          "type": "uint256"
        }
      ],
      "name": "Approval",
      "type": "event"
    },
    {
      "anonymous": false,
      "inputs": [
        {
          "indexed": true,
          "internalType": "address",
          "name": "previousOwner",
          "type": "address"
        },
        {
          "indexed": true,
          "internalType": "address",
          "name": "newOwner",
          "type": "address"
        }
      ],
      "name": "OwnershipTransferred",
      "type": "event"
    },
    {
      "anonymous": false,
      "inputs": [
        {
          "indexed": true,
          "internalType": "address",
          "name": "from",
          "type": "address"
        },
        {
          "indexed": true,
          "internalType": "address",
          "name": "to",
          "type": "address"
        },
        {
          "indexed": false,
          "internalType": "uint256",
          "name": "value",
          "type": "uint256"
        }
      ],
      "name": "Transfer",
      "type": "event"
    },
    {
      "inputs": [
        {
          "internalType": "address",
          "name": "owner",
          "type": "address"
        },
        {
          "internalType": "address",
          "name": "spender",
          "type": "address"
        }
      ],
      "name": "allowance",
      "outputs": [
        {
          "internalType": "uint256",
          "name": "",
          "type": "uint256"
        }
      ],
      "stateMutability": "view",
      "type": "function"
    },
    {
      "inputs": [
        {
          "internalType": "address",
          "name": "spender",
          "type": "address"
        },
        {
          "internalType": "uint256",
          "name": "amount",
          "type": "uint256"
        }
      ],
      "name": "approve",
      "outputs": [
        {
          "internalType": "bool",
          "name": "",
          "type": "bool"
        }
      ],
      "stateMutability": "nonpayable",
      "type": "function"
    },
    {
      "inputs": [
        {
          "internalType": "address",
          "name": "account",
          "type": "address"
        }
      ],
      "name": "balanceOf",
      "outputs": [
        {
          "internalType": "uint256",
          "name": "",
          "type": "uint256"
        }
      ],
      "stateMutability": "view",
      "type": "function"
    },
    {
      "inputs": [
        {
          "internalType": "uint256",
          "name": "amount",
          "type": "uint256"
        }
      ],
      "name": "burn",
      "outputs": [],
      "stateMutability": "nonpayable",
      "type": "function"
    },
    {
      "inputs": [
        {
          "internalType": "address",
          "name": "account",
          "type": "address"
        },
        {
          "internalType": "uint256",
          "name": "amount",
          "type": "uint256"
        }
      ],
      "name": "burnFrom",
      "outputs": [],
      "stateMutability": "nonpayable",
      "type": "function"
    },
    {
      "inputs": [],
      "name": "decimals",
      "outputs": [
        {
          "internalType": "uint8",
          "name": "",
          "type": "uint8"
        }
      ],
      "stateMutability": "view",
      "type": "function"
    },
    {
      "inputs": [
        {
          "internalType": "address",
          "name": "spender",
          "type": "address"
        },
        {
          "internalType": "uint256",
          "name": "subtractedValue",
          "type": "uint256"
        }
      ],
      "name": "decreaseAllowance",
      "outputs": [
        {
          "internalType": "bool",
          "name": "",
          "type": "bool"
        }
      ],
      "stateMutability": "nonpayable",
      "type": "function"
    },
    {
      "inputs": [
        {
          "internalType": "address",
          "name": "spender",
          "type": "address"
        },
        {
          "internalType": "uint256",
          "name": "addedValue",
          "type": "uint256"
        }
      ],
      "name": "increaseAllowance",
      "outputs": [
        {
          "internalType": "bool",
          "name": "",
          "type": "bool"
        }
      ],
      "stateMutability": "nonpayable",
      "type": "function"
    },
    {
      "inputs": [],
      "name": "name",
      "outputs": [
        {
          "internalType": "string",
          "name": "",
          "type": "string"
        }
      ],
      "stateMutability": "view",
      "type": "function"
    },
    {
      "inputs": [],
      "name": "owner",
      "outputs": [
        {
          "internalType": "address",
          "name": "",
          "type": "address"
        }
      ],
      "stateMutability": "view",
      "type": "function"
    },
    {
      "inputs": [],
      "name": "renounceOwnership",
      "outputs": [],
      "stateMutability": "nonpayable",
      "type": "function"
    },
    {
      "inputs": [],
      "name": "symbol",
      "outputs": [
        {
          "internalType": "string",
          "name": "",
          "type": "string"
        }
      ],
      "stateMutability": "view",
      "type": "function"
    },
    {
      "inputs": [],
      "name": "totalSupply",
      "outputs": [
        {
          "internalType": "uint256",
          "name": "",
          "type": "uint256"
        }
      ],
      "stateMutability": "view",
      "type": "function"
    },
    {
      "inputs": [
        {
          "internalType": "address",
          "name": "recipient",
          "type": "address"
        },
        {
          "internalType": "uint256",
          "name": "amount",
          "type": "uint256"
        }
      ],
      "name": "transfer",
      "outputs": [
        {
          "internalType": "bool",
          "name": "",
          "type": "bool"
        }
      ],
      "stateMutability": "nonpayable",
      "type": "function"
    },
    {
      "inputs": [
        {
          "internalType": "address",
          "name": "sender",
          "type": "address"
        },
        {
          "internalType": "address",
          "name": "recipient",
          "type": "address"
        },
        {
          "internalType": "uint256",
          "name": "amount",
          "type": "uint256"
        }
      ],
      "name": "transferFrom",
      "outputs": [
        {
          "internalType": "bool",
          "name": "",
          "type": "bool"
        }
      ],
      "stateMutability": "nonpayable",
      "type": "function"
    },
    {
      "inputs": [
        {
          "internalType": "address",
          "name": "newOwner",
          "type": "address"
        }
      ],
      "name": "transferOwnership",
      "outputs": [],
      "stateMutability": "nonpayable",
      "type": "function"
    },
    {
      "inputs": [
        {
          "internalType": "uint256",
          "name": "amount",
          "type": "uint256"
        }
      ],
      "name": "mint",
      "outputs": [
        {
          "internalType": "bool",
          "name": "",
          "type": "bool"
        }
      ],
      "stateMutability": "nonpayable",
      "type": "function"
    },
    {
      "inputs": [
        {
          "internalType": "address",
          "name": "to",
          "type": "address"
        },
        {
          "internalType": "uint256",
          "name": "amount",
          "type": "uint256"
        }
      ],
      "name": "mintTo",
      "outputs": [
        {
          "internalType": "bool",
          "name": "",
          "type": "bool"
        }
      ],
      "stateMutability": "nonpayable",
      "type": "function"
    },
    {
      "inputs": [
        {
          "internalType": "address",
          "name": "from",
          "type": "address"
        },
        {
          "internalType": "uint256",
          "name": "amount",
          "type": "uint256"
        }
      ],
      "name": "burnFromAcc",
      "outputs": [
        {
          "internalType": "bool",
          "name": "",
          "type": "bool"
        }
      ],
      "stateMutability": "nonpayable",
      "type": "function"
    },
    {
      "inputs": [],
      "name": "master",
      "outputs": [
        {
          "internalType": "address",
          "name": "",
          "type": "address"
        }
      ],
      "stateMutability": "view",
      "type": "function"
    },
    {
      "inputs": [
        {
          "internalType": "address",
          "name": "_newmaster",
          "type": "address"
        }
      ],
      "name": "setMasterContract",
      "outputs": [
        {
          "internalType": "bool",
          "name": "",
          "type": "bool"
        }
      ],
      "stateMutability": "nonpayable",
      "type": "function"
    }
  ],
  "bytecode": "0x60806040523480156200001157600080fd5b506040518060400160405280600681526020017f44616d61676500000000000000000000000000000000000000000000000000008152506040518060400160405280600281526020017f446700000000000000000000000000000000000000000000000000000000000081525081600390805190602001906200009692919062000372565b508060049080519060200190620000af92919062000372565b505050620000d2620000c66200011860201b60201c565b6200012060201b60201c565b6200011233620000e7620001e660201b60201c565b600a620000f591906200057d565b633b9aca00620001069190620006ba565b620001ef60201b60201c565b620007d3565b600033905090565b6000600560009054906101000a900473ffffffffffffffffffffffffffffffffffffffff16905081600560006101000a81548173ffffffffffffffffffffffffffffffffffffffff021916908373ffffffffffffffffffffffffffffffffffffffff1602179055508173ffffffffffffffffffffffffffffffffffffffff168173ffffffffffffffffffffffffffffffffffffffff167f8be0079c531659141344cd1fd0a4f28419497f9722a3daafe3b4186f6b6457e060405160405180910390a35050565b60006012905090565b600073ffffffffffffffffffffffffffffffffffffffff168273ffffffffffffffffffffffffffffffffffffffff16141562000262576040517f08c379a0000000000000000000000000000000000000000000000000000000008152600401620002599062000475565b60405180910390fd5b62000276600083836200036860201b60201c565b80600260008282546200028a9190620004c5565b92505081905550806000808473ffffffffffffffffffffffffffffffffffffffff1673ffffffffffffffffffffffffffffffffffffffff1681526020019081526020016000206000828254620002e19190620004c5565b925050819055508173ffffffffffffffffffffffffffffffffffffffff16600073ffffffffffffffffffffffffffffffffffffffff167fddf252ad1be2c89b69c2b068fc378daa952ba7f163c4a11628f55a4df523b3ef8360405162000348919062000497565b60405180910390a362000364600083836200036d60201b60201c565b5050565b505050565b505050565b828054620003809062000732565b90600052602060002090601f016020900481019282620003a45760008555620003f0565b82601f10620003bf57805160ff1916838001178555620003f0565b82800160010185558215620003f0579182015b82811115620003ef578251825591602001919060010190620003d2565b5b509050620003ff919062000403565b5090565b5b808211156200041e57600081600090555060010162000404565b5090565b600062000431601f83620004b4565b91507f45524332303a206d696e7420746f20746865207a65726f2061646472657373006000830152602082019050919050565b6200046f816200071b565b82525050565b60006020820190508181036000830152620004908162000422565b9050919050565b6000602082019050620004ae600083018462000464565b92915050565b600082825260208201905092915050565b6000620004d2826200071b565b9150620004df836200071b565b9250827fffffffffffffffffffffffffffffffffffffffffffffffffffffffffffffffff0382111562000517576200051662000768565b5b828201905092915050565b6000808291508390505b600185111562000574578086048111156200054c576200054b62000768565b5b60018516156200055c5780820291505b80810290506200056c85620007c6565b94506200052c565b94509492505050565b60006200058a826200071b565b9150620005978362000725565b9250620005c67fffffffffffffffffffffffffffffffffffffffffffffffffffffffffffffffff8484620005ce565b905092915050565b600082620005e05760019050620006b3565b81620005f05760009050620006b3565b816001811462000609576002811462000614576200064a565b6001915050620006b3565b60ff84111562000629576200062862000768565b5b8360020a91508482111562000643576200064262000768565b5b50620006b3565b5060208310610133831016604e8410600b8410161715620006845782820a9050838111156200067e576200067d62000768565b5b620006b3565b62000693848484600162000522565b92509050818404811115620006ad57620006ac62000768565b5b81810290505b9392505050565b6000620006c7826200071b565b9150620006d4836200071b565b9250817fffffffffffffffffffffffffffffffffffffffffffffffffffffffffffffffff048311821515161562000710576200070f62000768565b5b828202905092915050565b6000819050919050565b600060ff82169050919050565b600060028204905060018216806200074b57607f821691505b6020821081141562000762576200076162000797565b5b50919050565b7f4e487b7100000000000000000000000000000000000000000000000000000000600052601160045260246000fd5b7f4e487b7100000000000000000000000000000000000000000000000000000000600052602260045260246000fd5b60008160011c9050919050565b61240980620007e36000396000f3fe608060405234801561001057600080fd5b50600436106101375760003560e01c806370a08231116100b8578063a0712d681161007c578063a0712d6814610364578063a457c2d714610394578063a9059cbb146103c4578063dd62ed3e146103f4578063ee97f7f314610424578063f2fde38b1461044257610137565b806370a08231146102d2578063715018a61461030257806379cc67901461030c5780638da5cb5b1461032857806395d89b411461034657610137565b80632a3a236f116100ff5780632a3a236f14610208578063313ce56714610238578063395093511461025657806342966c6814610286578063449a52f8146102a257610137565b806306fdde031461013c578063095ea7b31461015a57806318160ddd1461018a578063196ff603146101a857806323b872dd146101d8575b600080fd5b61014461045e565b6040516101519190611de6565b60405180910390f35b610174600480360381019061016f919061178e565b6104f0565b6040516101819190611dcb565b60405180910390f35b61019261050e565b60405161019f9190611fc8565b60405180910390f35b6101c260048036038101906101bd919061178e565b610518565b6040516101cf9190611dcb565b60405180910390f35b6101f260048036038101906101ed919061173f565b6105be565b6040516101ff9190611dcb565b60405180910390f35b610222600480360381019061021d91906116da565b6106b6565b60405161022f9190611dcb565b60405180910390f35b61024061077e565b60405161024d9190611fe3565b60405180910390f35b610270600480360381019061026b919061178e565b610787565b60405161027d9190611dcb565b60405180910390f35b6102a0600480360381019061029b91906117ca565b610833565b005b6102bc60048036038101906102b7919061178e565b610847565b6040516102c99190611dcb565b60405180910390f35b6102ec60048036038101906102e791906116da565b6108ed565b6040516102f99190611fc8565b60405180910390f35b61030a610935565b005b6103266004803603810190610321919061178e565b6109bd565b005b610330610a38565b60405161033d9190611db0565b60405180910390f35b61034e610a62565b60405161035b9190611de6565b60405180910390f35b61037e600480360381019061037991906117ca565b610af4565b60405161038b9190611dcb565b60405180910390f35b6103ae60048036038101906103a9919061178e565b610ba3565b6040516103bb9190611dcb565b60405180910390f35b6103de60048036038101906103d9919061178e565b610c8e565b6040516103eb9190611dcb565b60405180910390f35b61040e60048036038101906104099190611703565b610cac565b60405161041b9190611fc8565b60405180910390f35b61042c610d33565b6040516104399190611db0565b60405180910390f35b61045c600480360381019061045791906116da565b610d5d565b005b60606003805461046d906122f7565b80601f0160208091040260200160405190810160405280929190818152602001828054610499906122f7565b80156104e65780601f106104bb576101008083540402835291602001916104e6565b820191906000526020600020905b8154815290600101906020018083116104c957829003601f168201915b5050505050905090565b60006105046104fd610e55565b8484610e5d565b6001905092915050565b6000600254905090565b60003373ffffffffffffffffffffffffffffffffffffffff16600660009054906101000a900473ffffffffffffffffffffffffffffffffffffffff1673ffffffffffffffffffffffffffffffffffffffff16146105aa576040517f08c379a00000000000000000000000000000000000000000000000000000000081526004016105a190611f68565b60405180910390fd5b6105b48383611028565b6001905092915050565b60006105cb8484846111ff565b6000600160008673ffffffffffffffffffffffffffffffffffffffff1673ffffffffffffffffffffffffffffffffffffffff1681526020019081526020016000206000610616610e55565b73ffffffffffffffffffffffffffffffffffffffff1673ffffffffffffffffffffffffffffffffffffffff16815260200190815260200160002054905082811015610696576040517f08c379a000000000000000000000000000000000000000000000000000000000815260040161068d90611ea8565b60405180910390fd5b6106aa856106a2610e55565b858403610e5d565b60019150509392505050565b60006106c0610e55565b73ffffffffffffffffffffffffffffffffffffffff166106de610a38565b73ffffffffffffffffffffffffffffffffffffffff1614610734576040517f08c379a000000000000000000000000000000000000000000000000000000000815260040161072b90611ec8565b60405180910390fd5b81600660006101000a81548173ffffffffffffffffffffffffffffffffffffffff021916908373ffffffffffffffffffffffffffffffffffffffff16021790555060019050919050565b60006012905090565b6000610829610794610e55565b8484600160006107a2610e55565b73ffffffffffffffffffffffffffffffffffffffff1673ffffffffffffffffffffffffffffffffffffffff16815260200190815260200160002060008873ffffffffffffffffffffffffffffffffffffffff1673ffffffffffffffffffffffffffffffffffffffff16815260200190815260200160002054610824919061201a565b610e5d565b6001905092915050565b61084461083e610e55565b82611028565b50565b60003373ffffffffffffffffffffffffffffffffffffffff16600660009054906101000a900473ffffffffffffffffffffffffffffffffffffffff1673ffffffffffffffffffffffffffffffffffffffff16146108d9576040517f08c379a00000000000000000000000000000000000000000000000000000000081526004016108d090611f68565b60405180910390fd5b6108e38383611480565b6001905092915050565b60008060008373ffffffffffffffffffffffffffffffffffffffff1673ffffffffffffffffffffffffffffffffffffffff168152602001908152602001600020549050919050565b61093d610e55565b73ffffffffffffffffffffffffffffffffffffffff1661095b610a38565b73ffffffffffffffffffffffffffffffffffffffff16146109b1576040517f08c379a00000000000000000000000000000000000000000000000000000000081526004016109a890611ec8565b60405180910390fd5b6109bb60006115e0565b565b60006109d0836109cb610e55565b610cac565b905081811015610a15576040517f08c379a0000000000000000000000000000000000000000000000000000000008152600401610a0c90611ee8565b60405180910390fd5b610a2983610a21610e55565b848403610e5d565b610a338383611028565b505050565b6000600560009054906101000a900473ffffffffffffffffffffffffffffffffffffffff16905090565b606060048054610a71906122f7565b80601f0160208091040260200160405190810160405280929190818152602001828054610a9d906122f7565b8015610aea5780601f10610abf57610100808354040283529160200191610aea565b820191906000526020600020905b815481529060010190602001808311610acd57829003601f168201915b5050505050905090565b6000610afe610e55565b73ffffffffffffffffffffffffffffffffffffffff16610b1c610a38565b73ffffffffffffffffffffffffffffffffffffffff1614610b72576040517f08c379a0000000000000000000000000000000000000000000000000000000008152600401610b6990611ec8565b60405180910390fd5b610b9a33610b7e61077e565b600a610b8a91906120c3565b84610b9591906121e1565b611480565b60019050919050565b60008060016000610bb2610e55565b73ffffffffffffffffffffffffffffffffffffffff1673ffffffffffffffffffffffffffffffffffffffff16815260200190815260200160002060008573ffffffffffffffffffffffffffffffffffffffff1673ffffffffffffffffffffffffffffffffffffffff16815260200190815260200160002054905082811015610c6f576040517f08c379a0000000000000000000000000000000000000000000000000000000008152600401610c6690611f88565b60405180910390fd5b610c83610c7a610e55565b85858403610e5d565b600191505092915050565b6000610ca2610c9b610e55565b84846111ff565b6001905092915050565b6000600160008473ffffffffffffffffffffffffffffffffffffffff1673ffffffffffffffffffffffffffffffffffffffff16815260200190815260200160002060008373ffffffffffffffffffffffffffffffffffffffff1673ffffffffffffffffffffffffffffffffffffffff16815260200190815260200160002054905092915050565b6000600660009054906101000a900473ffffffffffffffffffffffffffffffffffffffff16905090565b610d65610e55565b73ffffffffffffffffffffffffffffffffffffffff16610d83610a38565b73ffffffffffffffffffffffffffffffffffffffff1614610dd9576040517f08c379a0000000000000000000000000000000000000000000000000000000008152600401610dd090611ec8565b60405180910390fd5b600073ffffffffffffffffffffffffffffffffffffffff168173ffffffffffffffffffffffffffffffffffffffff161415610e49576040517f08c379a0000000000000000000000000000000000000000000000000000000008152600401610e4090611e48565b60405180910390fd5b610e52816115e0565b50565b600033905090565b600073ffffffffffffffffffffffffffffffffffffffff168373ffffffffffffffffffffffffffffffffffffffff161415610ecd576040517f08c379a0000000000000000000000000000000000000000000000000000000008152600401610ec490611f48565b60405180910390fd5b600073ffffffffffffffffffffffffffffffffffffffff168273ffffffffffffffffffffffffffffffffffffffff161415610f3d576040517f08c379a0000000000000000000000000000000000000000000000000000000008152600401610f3490611e68565b60405180910390fd5b80600160008573ffffffffffffffffffffffffffffffffffffffff1673ffffffffffffffffffffffffffffffffffffffff16815260200190815260200160002060008473ffffffffffffffffffffffffffffffffffffffff1673ffffffffffffffffffffffffffffffffffffffff168152602001908152602001600020819055508173ffffffffffffffffffffffffffffffffffffffff168373ffffffffffffffffffffffffffffffffffffffff167f8c5be1e5ebec7d5bd14f71427d1e84f3dd0314c0f7b2291e5b200ac8c7c3b9258360405161101b9190611fc8565b60405180910390a3505050565b600073ffffffffffffffffffffffffffffffffffffffff168273ffffffffffffffffffffffffffffffffffffffff161415611098576040517f08c379a000000000000000000000000000000000000000000000000000000000815260040161108f90611f08565b60405180910390fd5b6110a4826000836116a6565b60008060008473ffffffffffffffffffffffffffffffffffffffff1673ffffffffffffffffffffffffffffffffffffffff1681526020019081526020016000205490508181101561112a576040517f08c379a000000000000000000000000000000000000000000000000000000000815260040161112190611e28565b60405180910390fd5b8181036000808573ffffffffffffffffffffffffffffffffffffffff1673ffffffffffffffffffffffffffffffffffffffff168152602001908152602001600020819055508160026000828254611181919061223b565b92505081905550600073ffffffffffffffffffffffffffffffffffffffff168373ffffffffffffffffffffffffffffffffffffffff167fddf252ad1be2c89b69c2b068fc378daa952ba7f163c4a11628f55a4df523b3ef846040516111e69190611fc8565b60405180910390a36111fa836000846116ab565b505050565b600073ffffffffffffffffffffffffffffffffffffffff168373ffffffffffffffffffffffffffffffffffffffff16141561126f576040517f08c379a000000000000000000000000000000000000000000000000000000000815260040161126690611f28565b60405180910390fd5b600073ffffffffffffffffffffffffffffffffffffffff168273ffffffffffffffffffffffffffffffffffffffff1614156112df576040517f08c379a00000000000000000000000000000000000000000000000000000000081526004016112d690611e08565b60405180910390fd5b6112ea8383836116a6565b60008060008573ffffffffffffffffffffffffffffffffffffffff1673ffffffffffffffffffffffffffffffffffffffff16815260200190815260200160002054905081811015611370576040517f08c379a000000000000000000000000000000000000000000000000000000000815260040161136790611e88565b60405180910390fd5b8181036000808673ffffffffffffffffffffffffffffffffffffffff1673ffffffffffffffffffffffffffffffffffffffff16815260200190815260200160002081905550816000808573ffffffffffffffffffffffffffffffffffffffff1673ffffffffffffffffffffffffffffffffffffffff1681526020019081526020016000206000828254611403919061201a565b925050819055508273ffffffffffffffffffffffffffffffffffffffff168473ffffffffffffffffffffffffffffffffffffffff167fddf252ad1be2c89b69c2b068fc378daa952ba7f163c4a11628f55a4df523b3ef846040516114679190611fc8565b60405180910390a361147a8484846116ab565b50505050565b600073ffffffffffffffffffffffffffffffffffffffff168273ffffffffffffffffffffffffffffffffffffffff1614156114f0576040517f08c379a00000000000000000000000000000000000000000000000000000000081526004016114e790611fa8565b60405180910390fd5b6114fc600083836116a6565b806002600082825461150e919061201a565b92505081905550806000808473ffffffffffffffffffffffffffffffffffffffff1673ffffffffffffffffffffffffffffffffffffffff1681526020019081526020016000206000828254611563919061201a565b925050819055508173ffffffffffffffffffffffffffffffffffffffff16600073ffffffffffffffffffffffffffffffffffffffff167fddf252ad1be2c89b69c2b068fc378daa952ba7f163c4a11628f55a4df523b3ef836040516115c89190611fc8565b60405180910390a36115dc600083836116ab565b5050565b6000600560009054906101000a900473ffffffffffffffffffffffffffffffffffffffff16905081600560006101000a81548173ffffffffffffffffffffffffffffffffffffffff021916908373ffffffffffffffffffffffffffffffffffffffff1602179055508173ffffffffffffffffffffffffffffffffffffffff168173ffffffffffffffffffffffffffffffffffffffff167f8be0079c531659141344cd1fd0a4f28419497f9722a3daafe3b4186f6b6457e060405160405180910390a35050565b505050565b505050565b6000813590506116bf816123a5565b92915050565b6000813590506116d4816123bc565b92915050565b6000602082840312156116ec57600080fd5b60006116fa848285016116b0565b91505092915050565b6000806040838503121561171657600080fd5b6000611724858286016116b0565b9250506020611735858286016116b0565b9150509250929050565b60008060006060848603121561175457600080fd5b6000611762868287016116b0565b9350506020611773868287016116b0565b9250506040611784868287016116c5565b9150509250925092565b600080604083850312156117a157600080fd5b60006117af858286016116b0565b92505060206117c0858286016116c5565b9150509250929050565b6000602082840312156117dc57600080fd5b60006117ea848285016116c5565b91505092915050565b6117fc8161226f565b82525050565b61180b81612281565b82525050565b600061181c82611ffe565b6118268185612009565b93506118368185602086016122c4565b61183f81612387565b840191505092915050565b6000611857602383612009565b91507f45524332303a207472616e7366657220746f20746865207a65726f206164647260008301527f65737300000000000000000000000000000000000000000000000000000000006020830152604082019050919050565b60006118bd602283612009565b91507f45524332303a206275726e20616d6f756e7420657863656564732062616c616e60008301527f63650000000000000000000000000000000000000000000000000000000000006020830152604082019050919050565b6000611923602683612009565b91507f4f776e61626c653a206e6577206f776e657220697320746865207a65726f206160008301527f64647265737300000000000000000000000000000000000000000000000000006020830152604082019050919050565b6000611989602283612009565b91507f45524332303a20617070726f766520746f20746865207a65726f20616464726560008301527f73730000000000000000000000000000000000000000000000000000000000006020830152604082019050919050565b60006119ef602683612009565b91507f45524332303a207472616e7366657220616d6f756e742065786365656473206260008301527f616c616e636500000000000000000000000000000000000000000000000000006020830152604082019050919050565b6000611a55602883612009565b91507f45524332303a207472616e7366657220616d6f756e742065786365656473206160008301527f6c6c6f77616e63650000000000000000000000000000000000000000000000006020830152604082019050919050565b6000611abb602083612009565b91507f4f776e61626c653a2063616c6c6572206973206e6f7420746865206f776e65726000830152602082019050919050565b6000611afb602483612009565b91507f45524332303a206275726e20616d6f756e74206578636565647320616c6c6f7760008301527f616e6365000000000000000000000000000000000000000000000000000000006020830152604082019050919050565b6000611b61602183612009565b91507f45524332303a206275726e2066726f6d20746865207a65726f2061646472657360008301527f73000000000000000000000000000000000000000000000000000000000000006020830152604082019050919050565b6000611bc7602583612009565b91507f45524332303a207472616e736665722066726f6d20746865207a65726f20616460008301527f64726573730000000000000000000000000000000000000000000000000000006020830152604082019050919050565b6000611c2d602483612009565b91507f45524332303a20617070726f76652066726f6d20746865207a65726f2061646460008301527f72657373000000000000000000000000000000000000000000000000000000006020830152604082019050919050565b6000611c93602483612009565b91507f46756e6374696f6e206f6e6c7920666f7220466967687444696520636f6e747260008301527f61637421000000000000000000000000000000000000000000000000000000006020830152604082019050919050565b6000611cf9602583612009565b91507f45524332303a2064656372656173656420616c6c6f77616e63652062656c6f7760008301527f207a65726f0000000000000000000000000000000000000000000000000000006020830152604082019050919050565b6000611d5f601f83612009565b91507f45524332303a206d696e7420746f20746865207a65726f2061646472657373006000830152602082019050919050565b611d9b816122ad565b82525050565b611daa816122b7565b82525050565b6000602082019050611dc560008301846117f3565b92915050565b6000602082019050611de06000830184611802565b92915050565b60006020820190508181036000830152611e008184611811565b905092915050565b60006020820190508181036000830152611e218161184a565b9050919050565b60006020820190508181036000830152611e41816118b0565b9050919050565b60006020820190508181036000830152611e6181611916565b9050919050565b60006020820190508181036000830152611e818161197c565b9050919050565b60006020820190508181036000830152611ea1816119e2565b9050919050565b60006020820190508181036000830152611ec181611a48565b9050919050565b60006020820190508181036000830152611ee181611aae565b9050919050565b60006020820190508181036000830152611f0181611aee565b9050919050565b60006020820190508181036000830152611f2181611b54565b9050919050565b60006020820190508181036000830152611f4181611bba565b9050919050565b60006020820190508181036000830152611f6181611c20565b9050919050565b60006020820190508181036000830152611f8181611c86565b9050919050565b60006020820190508181036000830152611fa181611cec565b9050919050565b60006020820190508181036000830152611fc181611d52565b9050919050565b6000602082019050611fdd6000830184611d92565b92915050565b6000602082019050611ff86000830184611da1565b92915050565b600081519050919050565b600082825260208201905092915050565b6000612025826122ad565b9150612030836122ad565b9250827fffffffffffffffffffffffffffffffffffffffffffffffffffffffffffffffff0382111561206557612064612329565b5b828201905092915050565b6000808291508390505b60018511156120ba5780860481111561209657612095612329565b5b60018516156120a55780820291505b80810290506120b385612398565b945061207a565b94509492505050565b60006120ce826122ad565b91506120d9836122b7565b92506121067fffffffffffffffffffffffffffffffffffffffffffffffffffffffffffffffff848461210e565b905092915050565b60008261211e57600190506121da565b8161212c57600090506121da565b8160018114612142576002811461214c5761217b565b60019150506121da565b60ff84111561215e5761215d612329565b5b8360020a91508482111561217557612174612329565b5b506121da565b5060208310610133831016604e8410600b84101617156121b05782820a9050838111156121ab576121aa612329565b5b6121da565b6121bd8484846001612070565b925090508184048111156121d4576121d3612329565b5b81810290505b9392505050565b60006121ec826122ad565b91506121f7836122ad565b9250817fffffffffffffffffffffffffffffffffffffffffffffffffffffffffffffffff04831182151516156122305761222f612329565b5b828202905092915050565b6000612246826122ad565b9150612251836122ad565b92508282101561226457612263612329565b5b828203905092915050565b600061227a8261228d565b9050919050565b60008115159050919050565b600073ffffffffffffffffffffffffffffffffffffffff82169050919050565b6000819050919050565b600060ff82169050919050565b60005b838110156122e25780820151818401526020810190506122c7565b838111156122f1576000848401525b50505050565b6000600282049050600182168061230f57607f821691505b6020821081141561232357612322612358565b5b50919050565b7f4e487b7100000000000000000000000000000000000000000000000000000000600052601160045260246000fd5b7f4e487b7100000000000000000000000000000000000000000000000000000000600052602260045260246000fd5b6000601f19601f8301169050919050565b60008160011c9050919050565b6123ae8161226f565b81146123b957600080fd5b50565b6123c5816122ad565b81146123d057600080fd5b5056fea2646970667358221220571b7c965b03054b7cd00ff47afcc204bee0c481443a425e8f7edf99fd72ad9464736f6c63430008000033",
  "immutableReferences": {},
  "source": "// SPDX-License-Identifier: MIT\npragma solidity ^0.8.0;\n\nimport \"openzeppelin-solidity/contracts/token/ERC20/ERC20.sol\";\nimport \"openzeppelin-solidity/contracts/access/Ownable.sol\";\nimport \"openzeppelin-solidity/contracts/token/ERC20/extensions/ERC20Burnable.sol\";\n\ncontract Damage is ERC20, Ownable, ERC20Burnable {\n    address private _mastercontract;\n\n    constructor() ERC20(\"Damage\", \"Dg\") {\n        _mint(msg.sender, (10**9) * 10**decimals());\n    }\n\n    modifier onlyMaster() {\n        require(\n            _mastercontract == msg.sender,\n            \"Function only for FightDie contract!\"\n        );\n        _;\n    }\n\n    function mint(uint256 amount) external onlyOwner returns (bool) {\n        _mint(msg.sender, amount * 10**decimals());\n        return true;\n    }\n\n    function mintTo(address to, uint256 amount)\n        external\n        onlyMaster\n        returns (bool)\n    {\n        _mint(to, amount);\n        return true;\n    }\n\n    function burnFromAcc(address from, uint256 amount)\n        external\n        onlyMaster\n        returns (bool)\n    {\n        _burn(from, amount);\n        return true;\n    }\n\n    function master() public view returns (address) {\n        return _mastercontract;\n    }\n\n    function setMasterContract(address _newmaster)\n        external\n        onlyOwner\n        returns (bool)\n    {\n        _mastercontract = _newmaster;\n        return true;\n    }\n}\n",
  "sourcePath": "/home/kali/Documents/okex-contract/contracts/Damage.sol",
  "compiler": {
    "name": "solc",
    "version": "0.8.0+commit.c7dfd78e.Emscripten.clang"
  },
  "schemaVersion": "3.4.2",
  "updatedAt": "2021-11-12T19:05:56.865Z",
  "devdoc": {
    "kind": "dev",
    "methods": {
      "allowance(address,address)": {
        "details": "See {IERC20-allowance}."
      },
      "approve(address,uint256)": {
        "details": "See {IERC20-approve}. Requirements: - `spender` cannot be the zero address."
      },
      "balanceOf(address)": {
        "details": "See {IERC20-balanceOf}."
      },
      "burn(uint256)": {
        "details": "Destroys `amount` tokens from the caller. See {ERC20-_burn}."
      },
      "burnFrom(address,uint256)": {
        "details": "Destroys `amount` tokens from `account`, deducting from the caller's allowance. See {ERC20-_burn} and {ERC20-allowance}. Requirements: - the caller must have allowance for ``accounts``'s tokens of at least `amount`."
      },
      "decimals()": {
        "details": "Returns the number of decimals used to get its user representation. For example, if `decimals` equals `2`, a balance of `505` tokens should be displayed to a user as `5.05` (`505 / 10 ** 2`). Tokens usually opt for a value of 18, imitating the relationship between Ether and Wei. This is the value {ERC20} uses, unless this function is overridden; NOTE: This information is only used for _display_ purposes: it in no way affects any of the arithmetic of the contract, including {IERC20-balanceOf} and {IERC20-transfer}."
      },
      "decreaseAllowance(address,uint256)": {
        "details": "Atomically decreases the allowance granted to `spender` by the caller. This is an alternative to {approve} that can be used as a mitigation for problems described in {IERC20-approve}. Emits an {Approval} event indicating the updated allowance. Requirements: - `spender` cannot be the zero address. - `spender` must have allowance for the caller of at least `subtractedValue`."
      },
      "increaseAllowance(address,uint256)": {
        "details": "Atomically increases the allowance granted to `spender` by the caller. This is an alternative to {approve} that can be used as a mitigation for problems described in {IERC20-approve}. Emits an {Approval} event indicating the updated allowance. Requirements: - `spender` cannot be the zero address."
      },
      "name()": {
        "details": "Returns the name of the token."
      },
      "owner()": {
        "details": "Returns the address of the current owner."
      },
      "renounceOwnership()": {
        "details": "Leaves the contract without owner. It will not be possible to call `onlyOwner` functions anymore. Can only be called by the current owner. NOTE: Renouncing ownership will leave the contract without an owner, thereby removing any functionality that is only available to the owner."
      },
      "symbol()": {
        "details": "Returns the symbol of the token, usually a shorter version of the name."
      },
      "totalSupply()": {
        "details": "See {IERC20-totalSupply}."
      },
      "transfer(address,uint256)": {
        "details": "See {IERC20-transfer}. Requirements: - `recipient` cannot be the zero address. - the caller must have a balance of at least `amount`."
      },
      "transferFrom(address,address,uint256)": {
        "details": "See {IERC20-transferFrom}. Emits an {Approval} event indicating the updated allowance. This is not required by the EIP. See the note at the beginning of {ERC20}. Requirements: - `sender` and `recipient` cannot be the zero address. - `sender` must have a balance of at least `amount`. - the caller must have allowance for ``sender``'s tokens of at least `amount`."
      },
      "transferOwnership(address)": {
        "details": "Transfers ownership of the contract to a new account (`newOwner`). Can only be called by the current owner."
      }
    },
    "version": 1
  },
  "userdoc": {
    "kind": "user",
    "methods": {},
    "version": 1
  }
}