{
  "contractName": "FightGame",
  "abi": [
    {
      "inputs": [],
      "stateMutability": "nonpayable",
      "type": "constructor"
    },
    {
      "inputs": [
        {
          "internalType": "uint256",
          "name": "tokenid0",
          "type": "uint256"
        },
        {
          "internalType": "uint256",
          "name": "tokenid1",
          "type": "uint256"
        },
        {
          "internalType": "address",
          "name": "nft",
          "type": "address"
        },
        {
          "internalType": "uint256",
          "name": "startblock",
          "type": "uint256"
        }
      ],
      "name": "fightdeclare",
      "outputs": [
        {
          "internalType": "bool",
          "name": "",
          "type": "bool"
        },
        {
          "internalType": "uint256",
          "name": "",
          "type": "uint256"
        },
        {
          "internalType": "uint256",
          "name": "",
          "type": "uint256"
        }
      ],
      "stateMutability": "nonpayable",
      "type": "function"
    }
  ],
  "bytecode": "0x608060405234801561001057600080fd5b50606460008080815260200190815260200160002060000181905550600560008080815260200190815260200160002060010181905550600080600080815260200190815260200160002060020160006101000a81548160ff021916908315150217905550606e60008060018152602001908152602001600020600001819055506007600080600181526020019081526020016000206001018190555060016000806001815260200190815260200160002060020160006101000a81548160ff021916908315150217905550605a60008060028152602001908152602001600020600001819055506004600080600281526020019081526020016000206001018190555060008060006002815260200190815260200160002060020160006101000a81548160ff021916908315150217905550605f60008060038152602001908152602001600020600001819055506008600080600381526020019081526020016000206001018190555060016000806003815260200190815260200160002060020160006101000a81548160ff02191690831515021790555060826000806004815260200190815260200160002060000181905550600f600080600481526020019081526020016000206001018190555060008060006004815260200190815260200160002060020160006101000a81548160ff021916908315150217905550606f6000806005815260200190815260200160002060000181905550600b600080600581526020019081526020016000206001018190555060016000806005815260200190815260200160002060020160006101000a81548160ff021916908315150217905550605060008060068152602001908152602001600020600001819055506003600080600681526020019081526020016000206001018190555060008060006006815260200190815260200160002060020160006101000a81548160ff021916908315150217905550606460008060078152602001908152602001600020600001819055506009600080600781526020019081526020016000206001018190555060016000806007815260200190815260200160002060020160006101000a81548160ff021916908315150217905550610d53806103556000396000f3fe608060405234801561001057600080fd5b506004361061002b5760003560e01c80639ea976f114610030575b600080fd5b61004a6004803603810190610045919061096e565b610062565b60405161005993929190610a2f565b60405180910390f35b60008060006014846100749190610b09565b43116100b5576040517f08c379a00000000000000000000000000000000000000000000000000000000081526004016100ac90610a66565b60405180910390fd5b6000806000808873ffffffffffffffffffffffffffffffffffffffff16630178fe3f8c6040518263ffffffff1660e01b81526004016100f49190610a86565b6101406040518083038186803b15801561010d57600080fd5b505afa158015610121573d6000803e3d6000fd5b505050506040513d601f19601f820116820180604052508101906101459190610944565b905060008973ffffffffffffffffffffffffffffffffffffffff16630178fe3f8c6040518263ffffffff1660e01b81526004016101829190610a86565b6101406040518083038186803b15801561019b57600080fd5b505afa1580156101af573d6000803e3d6000fd5b505050506040513d601f19601f820116820180604052508101906101d39190610944565b905060008990505b60148a6101e89190610b09565b81101561082857600060088240600f6020811061022e577f4e487b7100000000000000000000000000000000000000000000000000000000600052603260045260246000fd5b1a60f81b60f81c61023f9190610c31565b905060001515851515141561053157600015156000808360ff16815260200190815260200160002060020160009054906101000a900460ff16151514156103d8576000808260ff16815260200190815260200160002060010154846000600a81106102d3577f4e487b7100000000000000000000000000000000000000000000000000000000600052603260045260246000fd5b602002015111156103bd57836000600a8110610318577f4e487b7100000000000000000000000000000000000000000000000000000000600052603260045260246000fd5b60200201516000808360ff168152602001908152602001600020600001546103409190610b09565b8761034b9190610b09565b96506000808260ff16815260200190815260200160002060010154846000600a81106103a0577f4e487b7100000000000000000000000000000000000000000000000000000000600052603260045260246000fd5b602002018181516103b19190610b5f565b915081815250506103d3565b6001878799509950995050505050505050610871565b61052c565b6000808260ff16815260200190815260200160002060010154846001600a811061042b577f4e487b7100000000000000000000000000000000000000000000000000000000600052603260045260246000fd5b6020020151111561051557836001600a8110610470577f4e487b7100000000000000000000000000000000000000000000000000000000600052603260045260246000fd5b60200201516000808360ff168152602001908152602001600020600001546104989190610b09565b876104a39190610b09565b96506000808260ff16815260200190815260200160002060010154846001600a81106104f8577f4e487b7100000000000000000000000000000000000000000000000000000000600052603260045260246000fd5b602002018181516105099190610b5f565b9150818152505061052b565b6001878799509950995050505050505050610871565b5b610810565b600015156000808360ff16815260200190815260200160002060020160009054906101000a900460ff16151514156106bb576000808260ff16815260200190815260200160002060010154836000600a81106105b6577f4e487b7100000000000000000000000000000000000000000000000000000000600052603260045260246000fd5b602002015111156106a057826000600a81106105fb577f4e487b7100000000000000000000000000000000000000000000000000000000600052603260045260246000fd5b60200201516000808360ff168152602001908152602001600020600001546106239190610b09565b8661062e9190610b09565b95506000808260ff16815260200190815260200160002060010154836000600a8110610683577f4e487b7100000000000000000000000000000000000000000000000000000000600052603260045260246000fd5b602002018181516106949190610b5f565b915081815250506106b6565b6000878799509950995050505050505050610871565b61080f565b6000808260ff16815260200190815260200160002060010154836001600a811061070e577f4e487b7100000000000000000000000000000000000000000000000000000000600052603260045260246000fd5b602002015111156107f857826001600a8110610753577f4e487b7100000000000000000000000000000000000000000000000000000000600052603260045260246000fd5b60200201516000808360ff1681526020019081526020016000206000015461077b9190610b09565b866107869190610b09565b95506000808260ff16815260200190815260200160002060010154836001600a81106107db577f4e487b7100000000000000000000000000000000000000000000000000000000600052603260045260246000fd5b602002018181516107ec9190610b5f565b9150818152505061080e565b6000878799509950995050505050505050610871565b5b5b8415945050808061082090610be8565b9150506101db565b508385111561084557600085859750975097505050505050610871565b8385101561086157600185859750975097505050505050610871565b6000858597509750975050505050505b9450945094915050565b600061088e61088984610ad2565b610aa1565b905080828560208602820111156108a457600080fd5b60005b858110156108d457816108ba888261092f565b8452602084019350602083019250506001810190506108a7565b5050509392505050565b6000813590506108ed81610cef565b92915050565b600082601f83011261090457600080fd5b600a61091184828561087b565b91505092915050565b60008135905061092981610d06565b92915050565b60008151905061093e81610d06565b92915050565b6000610140828403121561095757600080fd5b6000610965848285016108f3565b91505092915050565b6000806000806080858703121561098457600080fd5b60006109928782880161091a565b94505060206109a38782880161091a565b93505060406109b4878288016108de565b92505060606109c58782880161091a565b91505092959194509250565b6109da81610ba5565b82525050565b60006109ed600d83610af8565b91507f506c6561736520726563616c6c000000000000000000000000000000000000006000830152602082019050919050565b610a2981610bd1565b82525050565b6000606082019050610a4460008301866109d1565b610a516020830185610a20565b610a5e6040830184610a20565b949350505050565b60006020820190508181036000830152610a7f816109e0565b9050919050565b6000602082019050610a9b6000830184610a20565b92915050565b6000604051905081810181811067ffffffffffffffff82111715610ac857610ac7610cc0565b5b8060405250919050565b600067ffffffffffffffff821115610aed57610aec610cc0565b5b602082029050919050565b600082825260208201905092915050565b6000610b1482610bd1565b9150610b1f83610bd1565b9250827fffffffffffffffffffffffffffffffffffffffffffffffffffffffffffffffff03821115610b5457610b53610c62565b5b828201905092915050565b6000610b6a82610bd1565b9150610b7583610bd1565b925082821015610b8857610b87610c62565b5b828203905092915050565b6000610b9e82610bb1565b9050919050565b60008115159050919050565b600073ffffffffffffffffffffffffffffffffffffffff82169050919050565b6000819050919050565b600060ff82169050919050565b6000610bf382610bd1565b91507fffffffffffffffffffffffffffffffffffffffffffffffffffffffffffffffff821415610c2657610c25610c62565b5b600182019050919050565b6000610c3c82610bdb565b9150610c4783610bdb565b925082610c5757610c56610c91565b5b828206905092915050565b7f4e487b7100000000000000000000000000000000000000000000000000000000600052601160045260246000fd5b7f4e487b7100000000000000000000000000000000000000000000000000000000600052601260045260246000fd5b7f4e487b7100000000000000000000000000000000000000000000000000000000600052604160045260246000fd5b610cf881610b93565b8114610d0357600080fd5b50565b610d0f81610bd1565b8114610d1a57600080fd5b5056fea26469706673582212200c73893100b8087a040448b22aaebde22006a7576fcf1f0f9e168abb0013d84764736f6c63430008000033",
  "immutableReferences": {},
  "source": "pragma solidity ^0.8.0;\npragma abicoder v2; // required to accept structs as function parameters\n\ninterface VNftcontract{\n     function getData(uint256 tokenid) external view returns (uint256[10] memory);\n    \n}\n\n\n\n\ncontract FightGame {\n\nstruct move{\n    uint damage;\n    uint effect;\n    bool kick;\n}\n\nmapping(uint=>move) moves;\nconstructor(){\n    moves[0].damage = 100;\n    moves[0].effect = 5;\n    moves[0].kick = false;\n    moves[1].damage = 110;\n    moves[1].effect = 7;\n    moves[1].kick = true;\n    moves[2].damage = 90;\n    moves[2].effect = 4;\n    moves[2].kick = false;\n    moves[3].damage = 95;\n    moves[3].effect = 8;\n    moves[3].kick = true;\n    moves[4].damage = 130;\n    moves[4].effect = 15;\n    moves[4].kick = false;\n    moves[5].damage = 111;\n    moves[5].effect = 11;\n    moves[5].kick = true;\n    moves[6].damage = 80;\n    moves[6].effect = 3;\n    moves[6].kick = false;\n    moves[7].damage = 100;\n    moves[7].effect = 9;\n    moves[7].kick = true;\n}\n\nfunction fightdeclare(uint256 tokenid0, uint256 tokenid1, address nft,uint startblock) external returns(bool,uint,uint){\n    require(block.number > startblock+20,\"Please recall\");\n    uint damage0 = 0;\n    uint damage1 = 0;\n    bool turn = false;\n    uint256[10] memory data0 = VNftcontract(nft).getData(tokenid0);\n    uint256[10] memory data1 = VNftcontract(nft).getData(tokenid1);\n\n    for (uint j=startblock; j < startblock+20 ;j++ ){\n        uint8 number = uint8(bytes32(blockhash(j))[15])%8;\n        if(turn ==false ){\n       \n            if(moves[number].kick == false){\n                \n                if(data0[0]>moves[number].effect){\n                damage0 += moves[number].damage+data0[0];\n                data0[0]-=moves[number].effect;}\n                else{\n                    return (true,damage0,damage1);\n                }\n            }else{\n                 if(data0[1]>moves[number].effect){\n                damage0 += moves[number].damage+data0[1];\n                data0[1]-=moves[number].effect;\n                 }\n                 else{\n                      return (true,damage0,damage1);\n                 }\n            }\n        }\n        else{\n           \n            if(moves[number].kick == false){\n                if(data1[0]>moves[number].effect){\n                 damage1 += moves[number].damage+data1[0];\n                data1[0]-=moves[number].effect;\n                }\n                else{\n                     return (false,damage0,damage1);\n                }\n            }\n            else{\n                 if(data1[1]>moves[number].effect){\n                damage1 += moves[number].damage+data1[1];\n                data1[1]-=moves[number].effect;\n                 }else{\n                     return (false,damage0,damage1);\n                 }\n            }\n        }\n        \n        turn = !turn;\n\n    }\n \n    if(damage0 > damage1){\n         return (false,damage0,damage1);\n    }\n    else if (damage0 < damage1){\n        return (true,damage0,damage1);\n    }\n    else{\n        return(false,damage0,damage1);\n    }\n\n\n\n}\n}",
  "sourcePath": "/home/kali/Documents/okex-contract/contracts/FightGame.sol",
  "compiler": {
    "name": "solc",
    "version": "0.8.0+commit.c7dfd78e.Emscripten.clang"
  },
  "schemaVersion": "3.4.2",
  "updatedAt": "2021-11-12T19:05:56.883Z",
  "devdoc": {
    "kind": "dev",
    "methods": {},
    "version": 1
  },
  "userdoc": {
    "kind": "user",
    "methods": {},
    "version": 1
  }
}