{
  "contractName": "GameContract",
  "abi": [
    {
      "inputs": [
        {
          "internalType": "address",
          "name": "Nft",
          "type": "address"
        },
        {
          "internalType": "address",
          "name": "gameAdd",
          "type": "address"
        },
        {
          "internalType": "address",
          "name": "Damage",
          "type": "address"
        }
      ],
      "stateMutability": "nonpayable",
      "type": "constructor"
    },
    {
      "inputs": [],
      "name": "gameid",
      "outputs": [
        {
          "internalType": "uint256",
          "name": "",
          "type": "uint256"
        }
      ],
      "stateMutability": "view",
      "type": "function"
    },
    {
      "inputs": [
        {
          "internalType": "uint256",
          "name": "",
          "type": "uint256"
        }
      ],
      "name": "games",
      "outputs": [
        {
          "internalType": "address",
          "name": "",
          "type": "address"
        }
      ],
      "stateMutability": "view",
      "type": "function"
    },
    {
      "inputs": [],
      "name": "nft",
      "outputs": [
        {
          "internalType": "address",
          "name": "",
          "type": "address"
        }
      ],
      "stateMutability": "view",
      "type": "function"
    },
    {
      "inputs": [],
      "name": "owner",
      "outputs": [
        {
          "internalType": "address",
          "name": "",
          "type": "address"
        }
      ],
      "stateMutability": "view",
      "type": "function"
    },
    {
      "inputs": [
        {
          "internalType": "uint256",
          "name": "gameId",
          "type": "uint256"
        }
      ],
      "name": "viewgame",
      "outputs": [
        {
          "internalType": "uint256",
          "name": "",
          "type": "uint256"
        }
      ],
      "stateMutability": "view",
      "type": "function"
    },
    {
      "inputs": [
        {
          "internalType": "uint256",
          "name": "gameId",
          "type": "uint256"
        }
      ],
      "name": "viewwinner",
      "outputs": [
        {
          "internalType": "bool",
          "name": "",
          "type": "bool"
        }
      ],
      "stateMutability": "view",
      "type": "function"
    },
    {
      "inputs": [
        {
          "internalType": "uint256",
          "name": "tokenid",
          "type": "uint256"
        }
      ],
      "name": "Playerpart",
      "outputs": [],
      "stateMutability": "nonpayable",
      "type": "function"
    },
    {
      "inputs": [
        {
          "internalType": "uint256",
          "name": "gameId",
          "type": "uint256"
        },
        {
          "internalType": "bool",
          "name": "bet",
          "type": "bool"
        }
      ],
      "name": "PlaceBet",
      "outputs": [],
      "stateMutability": "payable",
      "type": "function"
    },
    {
      "inputs": [
        {
          "internalType": "uint256",
          "name": "gameId",
          "type": "uint256"
        }
      ],
      "name": "winclaim",
      "outputs": [],
      "stateMutability": "nonpayable",
      "type": "function"
    },
    {
      "inputs": [
        {
          "internalType": "uint256",
          "name": "tokenid",
          "type": "uint256"
        },
        {
          "internalType": "uint256",
          "name": "gameid",
          "type": "uint256"
        }
      ],
      "name": "claimnft",
      "outputs": [],
      "stateMutability": "nonpayable",
      "type": "function"
    }
  ],
  "bytecode": "0x60806040523480156200001157600080fd5b5060405162001ec238038062001ec2833981810160405281019062000037919062000162565b6000600381905550826000806101000a81548173ffffffffffffffffffffffffffffffffffffffff021916908373ffffffffffffffffffffffffffffffffffffffff16021790555032600160006101000a81548173ffffffffffffffffffffffffffffffffffffffff021916908373ffffffffffffffffffffffffffffffffffffffff16021790555081600460006101000a81548173ffffffffffffffffffffffffffffffffffffffff021916908373ffffffffffffffffffffffffffffffffffffffff16021790555080600560006101000a81548173ffffffffffffffffffffffffffffffffffffffff021916908373ffffffffffffffffffffffffffffffffffffffff16021790555050505062000206565b6000815190506200015c81620001ec565b92915050565b6000806000606084860312156200017857600080fd5b600062000188868287016200014b565b93505060206200019b868287016200014b565b9250506040620001ae868287016200014b565b9150509250925092565b6000620001c582620001cc565b9050919050565b600073ffffffffffffffffffffffffffffffffffffffff82169050919050565b620001f781620001b8565b81146200020357600080fd5b50565b611cac80620002166000396000f3fe6080604052600436106100915760003560e01c806379a9e4211161005957806379a9e421146101825780638da5cb5b146101ab578063c0c0a2e6146101d6578063c9b4899e146101ff578063fea5f9381461022857610091565b8063117a5b9014610096578063169272ef146100d357806321183daf146100fe5780633081b5f61461011a57806347ccca0214610157575b600080fd5b3480156100a257600080fd5b506100bd60048036038101906100b891906117cf565b610265565b6040516100ca919061191d565b60405180910390f35b3480156100df57600080fd5b506100e86102a4565b6040516100f591906119bc565b60405180910390f35b610118600480360381019061011391906117f8565b6102aa565b005b34801561012657600080fd5b50610141600480360381019061013c91906117cf565b610555565b60405161014e91906119bc565b60405180910390f35b34801561016357600080fd5b5061016c610575565b604051610179919061191d565b60405180910390f35b34801561018e57600080fd5b506101a960048036038101906101a49190611834565b610599565b005b3480156101b757600080fd5b506101c0610c31565b6040516101cd919061191d565b60405180910390f35b3480156101e257600080fd5b506101fd60048036038101906101f891906117cf565b610c57565b005b34801561020b57600080fd5b50610226600480360381019061022191906117cf565b611150565b005b34801561023457600080fd5b5061024f600480360381019061024a91906117cf565b611672565b60405161025c9190611961565b60405180910390f35b6002818154811061027557600080fd5b906000526020600020016000915054906101000a900473ffffffffffffffffffffffffffffffffffffffff1681565b60035481565b600073ffffffffffffffffffffffffffffffffffffffff166006600084815260200190815260200160002060020160009054906101000a900473ffffffffffffffffffffffffffffffffffffffff1673ffffffffffffffffffffffffffffffffffffffff16141580156103805750600073ffffffffffffffffffffffffffffffffffffffff166006600084815260200190815260200160002060040160009054906101000a900473ffffffffffffffffffffffffffffffffffffffff1673ffffffffffffffffffffffffffffffffffffffff1614155b61038957600080fd5b600060066000848152602001908152602001600020600e0160003273ffffffffffffffffffffffffffffffffffffffff1673ffffffffffffffffffffffffffffffffffffffff1681526020019081526020016000206001015414610422576040517f08c379a00000000000000000000000000000000000000000000000000000000081526004016104199061197c565b60405180910390fd5b3460066000848152602001908152602001600020600e0160003273ffffffffffffffffffffffffffffffffffffffff1673ffffffffffffffffffffffffffffffffffffffff168152602001908152602001600020600101819055508060066000848152602001908152602001600020600e0160003273ffffffffffffffffffffffffffffffffffffffff1673ffffffffffffffffffffffffffffffffffffffff16815260200190815260200160002060000160006101000a81548160ff021916908315150217905550801561052357346006600084815260200190815260200160002060090160008282546105179190611a2d565b92505081905550610551565b346006600084815260200190815260200160002060080160008282546105499190611a2d565b925050819055505b5050565b600060066000838152602001908152602001600020600701549050919050565b60008054906101000a900473ffffffffffffffffffffffffffffffffffffffff1681565b6006600082815260200190815260200160002060020160009054906101000a900473ffffffffffffffffffffffffffffffffffffffff1673ffffffffffffffffffffffffffffffffffffffff163273ffffffffffffffffffffffffffffffffffffffff16148061066a57506006600082815260200190815260200160002060040160009054906101000a900473ffffffffffffffffffffffffffffffffffffffff1673ffffffffffffffffffffffffffffffffffffffff163273ffffffffffffffffffffffffffffffffffffffff16145b61067357600080fd5b6000151560066000838152602001908152602001600020600a0160009054906101000a900460ff16151514156108895761010060066000838152602001908152602001600020600701546106c79190611a2d565b43106106d257600080fd5b6000806000600460009054906101000a900473ffffffffffffffffffffffffffffffffffffffff1673ffffffffffffffffffffffffffffffffffffffff16639ea976f16006600087815260200190815260200160002060030154600660008881526020019081526020016000206005015460008054906101000a900473ffffffffffffffffffffffffffffffffffffffff16600660008a8152602001908152602001600020600701546040518563ffffffff1660e01b815260040161079a94939291906119d7565b606060405180830381600087803b1580156107b457600080fd5b505af11580156107c8573d6000803e3d6000fd5b505050506040513d601f19601f820116820180604052508101906107ec9190611780565b9250925092508160066000868152602001908152602001600020600b01819055508060066000868152602001908152602001600020600c01819055508260066000868152602001908152602001600020600d0160006101000a81548160ff021916908315150217905550600160066000868152602001908152602001600020600a0160006101000a81548160ff0219169083151502179055505050505b6006600082815260200190815260200160002060020160009054906101000a900473ffffffffffffffffffffffffffffffffffffffff1673ffffffffffffffffffffffffffffffffffffffff163273ffffffffffffffffffffffffffffffffffffffff161415610a5b5760008054906101000a900473ffffffffffffffffffffffffffffffffffffffff1673ffffffffffffffffffffffffffffffffffffffff16636198e33960066000848152602001908152602001600020600301546040518263ffffffff1660e01b815260040161096291906119bc565b600060405180830381600087803b15801561097c57600080fd5b505af1158015610990573d6000803e3d6000fd5b50505050600560009054906101000a900473ffffffffffffffffffffffffffffffffffffffff1673ffffffffffffffffffffffffffffffffffffffff1663449a52f83260066000858152602001908152602001600020600b01546040518363ffffffff1660e01b8152600401610a07929190611938565b602060405180830381600087803b158015610a2157600080fd5b505af1158015610a35573d6000803e3d6000fd5b505050506040513d601f19601f82011682018060405250810190610a599190611757565b505b6006600082815260200190815260200160002060040160009054906101000a900473ffffffffffffffffffffffffffffffffffffffff1673ffffffffffffffffffffffffffffffffffffffff163273ffffffffffffffffffffffffffffffffffffffff161415610c2d5760008054906101000a900473ffffffffffffffffffffffffffffffffffffffff1673ffffffffffffffffffffffffffffffffffffffff16636198e33960066000848152602001908152602001600020600501546040518263ffffffff1660e01b8152600401610b3491906119bc565b600060405180830381600087803b158015610b4e57600080fd5b505af1158015610b62573d6000803e3d6000fd5b50505050600560009054906101000a900473ffffffffffffffffffffffffffffffffffffffff1673ffffffffffffffffffffffffffffffffffffffff1663449a52f83260066000858152602001908152602001600020600c01546040518363ffffffff1660e01b8152600401610bd9929190611938565b602060405180830381600087803b158015610bf357600080fd5b505af1158015610c07573d6000803e3d6000fd5b505050506040513d601f19601f82011682018060405250810190610c2b9190611757565b505b5050565b600160009054906101000a900473ffffffffffffffffffffffffffffffffffffffff1681565b600060066000838152602001908152602001600020905060148160070154610c7f9190611a2d565b4311610c8a57600080fd5b600081600e0160003273ffffffffffffffffffffffffffffffffffffffff1673ffffffffffffffffffffffffffffffffffffffff1681526020019081526020016000206001015411610cdb57600080fd5b6000151581600e0160003273ffffffffffffffffffffffffffffffffffffffff1673ffffffffffffffffffffffffffffffffffffffff16815260200190815260200160002060020160009054906101000a900460ff16151514610d3d57600080fd5b6000151581600a0160009054906101000a900460ff1615151415610f32576101008160070154610d6d9190611a2d565b4310610d7857600080fd5b6000806000600460009054906101000a900473ffffffffffffffffffffffffffffffffffffffff1673ffffffffffffffffffffffffffffffffffffffff16639ea976f18560030154866005015460008054906101000a900473ffffffffffffffffffffffffffffffffffffffff1688600701546040518563ffffffff1660e01b8152600401610e0a94939291906119d7565b606060405180830381600087803b158015610e2457600080fd5b505af1158015610e38573d6000803e3d6000fd5b505050506040513d601f19601f82011682018060405250810190610e5c9190611780565b925092509250600184600a0160006101000a81548160ff0219169083151502179055508284600d0160006101000a81548160ff0219169083151502179055508160066000878152602001908152602001600020600b01819055508060066000878152602001908152602001600020600c01819055508260066000878152602001908152602001600020600d0160006101000a81548160ff021916908315150217905550600160066000878152602001908152602001600020600a0160006101000a81548160ff0219169083151502179055505050505b80600d0160009054906101000a900460ff16151581600e0160003273ffffffffffffffffffffffffffffffffffffffff1673ffffffffffffffffffffffffffffffffffffffff16815260200190815260200160002060000160009054906101000a900460ff161515141561114c57600032905060006001151583600d0160009054906101000a900460ff1615151415610fd15782600901549050610fd9565b826008015490505b600083600901548460080154610fef9190611a2d565b9050600060646005836110029190611ab4565b61100c9190611a83565b826110179190611b0e565b90506000606484606488600e0160003273ffffffffffffffffffffffffffffffffffffffff1673ffffffffffffffffffffffffffffffffffffffff1681526020019081526020016000206001015461106f9190611ab4565b6110799190611a83565b836110849190611ab4565b61108e9190611a83565b9050600160066000898152602001908152602001600020600e0160003273ffffffffffffffffffffffffffffffffffffffff1673ffffffffffffffffffffffffffffffffffffffff16815260200190815260200160002060020160006101000a81548160ff0219169083151502179055508473ffffffffffffffffffffffffffffffffffffffff166108fc829081150290604051600060405180830381858888f19350505050158015611145573d6000803e3d6000fd5b5050505050505b5050565b3273ffffffffffffffffffffffffffffffffffffffff1660008054906101000a900473ffffffffffffffffffffffffffffffffffffffff1673ffffffffffffffffffffffffffffffffffffffff16636352211e836040518263ffffffff1660e01b81526004016111c091906119bc565b60206040518083038186803b1580156111d857600080fd5b505afa1580156111ec573d6000803e3d6000fd5b505050506040513d601f19601f82011682018060405250810190611210919061172e565b73ffffffffffffffffffffffffffffffffffffffff1614611266576040517f08c379a000000000000000000000000000000000000000000000000000000000815260040161125d9061199c565b60405180910390fd5b60066000600354815260200190815260200160002060070154431061128a57600080fd5b600073ffffffffffffffffffffffffffffffffffffffff1660066000600354815260200190815260200160002060020160009054906101000a900473ffffffffffffffffffffffffffffffffffffffff1673ffffffffffffffffffffffffffffffffffffffff16141580156113645750600073ffffffffffffffffffffffffffffffffffffffff1660066000600354815260200190815260200160002060040160009054906101000a900473ffffffffffffffffffffffffffffffffffffffff1673ffffffffffffffffffffffffffffffffffffffff1614155b1561139b576003600081548092919061137c90611b8a565b9190505550611396601e436113919190611a2d565b61169f565b61166f565b600073ffffffffffffffffffffffffffffffffffffffff1660066000600354815260200190815260200160002060020160009054906101000a900473ffffffffffffffffffffffffffffffffffffffff1673ffffffffffffffffffffffffffffffffffffffff16141561153d573260066000600354815260200190815260200160002060020160006101000a81548173ffffffffffffffffffffffffffffffffffffffff021916908373ffffffffffffffffffffffffffffffffffffffff160217905550806006600060035481526020019081526020016000206003018190555060008054906101000a900473ffffffffffffffffffffffffffffffffffffffff1673ffffffffffffffffffffffffffffffffffffffff1663dd467064826040518263ffffffff1660e01b81526004016114d591906119bc565b600060405180830381600087803b1580156114ef57600080fd5b505af1158015611503573d6000803e3d6000fd5b50505050600160066000600354815260200190815260200160002060060160006101000a81548160ff02191690831515021790555061166e565b3260066000600354815260200190815260200160002060040160006101000a81548173ffffffffffffffffffffffffffffffffffffffff021916908373ffffffffffffffffffffffffffffffffffffffff160217905550806006600060035481526020019081526020016000206005018190555060008054906101000a900473ffffffffffffffffffffffffffffffffffffffff1673ffffffffffffffffffffffffffffffffffffffff1663dd467064826040518263ffffffff1660e01b815260040161160a91906119bc565b600060405180830381600087803b15801561162457600080fd5b505af1158015611638573d6000803e3d6000fd5b50505050600160066000600354815260200190815260200160002060060160016101000a81548160ff0219169083151502179055505b5b50565b600060066000838152602001908152602001600020600d0160009054906101000a900460ff169050919050565b600060066000600354815260200190815260200160002090508181600701819055505050565b6000815190506116d481611c31565b92915050565b6000813590506116e981611c48565b92915050565b6000815190506116fe81611c48565b92915050565b60008135905061171381611c5f565b92915050565b60008151905061172881611c5f565b92915050565b60006020828403121561174057600080fd5b600061174e848285016116c5565b91505092915050565b60006020828403121561176957600080fd5b6000611777848285016116ef565b91505092915050565b60008060006060848603121561179557600080fd5b60006117a3868287016116ef565b93505060206117b486828701611719565b92505060406117c586828701611719565b9150509250925092565b6000602082840312156117e157600080fd5b60006117ef84828501611704565b91505092915050565b6000806040838503121561180b57600080fd5b600061181985828601611704565b925050602061182a858286016116da565b9150509250929050565b6000806040838503121561184757600080fd5b600061185585828601611704565b925050602061186685828601611704565b9150509250929050565b61187981611b42565b82525050565b61188881611b54565b82525050565b600061189b601d83611a1c565b91507f796f75206861766520616c726561647920706c616365642061206265740000006000830152602082019050919050565b60006118db601183611a1c565b91507f596f7520617265206e6f74206f776e65720000000000000000000000000000006000830152602082019050919050565b61191781611b80565b82525050565b60006020820190506119326000830184611870565b92915050565b600060408201905061194d6000830185611870565b61195a602083018461190e565b9392505050565b6000602082019050611976600083018461187f565b92915050565b600060208201905081810360008301526119958161188e565b9050919050565b600060208201905081810360008301526119b5816118ce565b9050919050565b60006020820190506119d1600083018461190e565b92915050565b60006080820190506119ec600083018761190e565b6119f9602083018661190e565b611a066040830185611870565b611a13606083018461190e565b95945050505050565b600082825260208201905092915050565b6000611a3882611b80565b9150611a4383611b80565b9250827fffffffffffffffffffffffffffffffffffffffffffffffffffffffffffffffff03821115611a7857611a77611bd3565b5b828201905092915050565b6000611a8e82611b80565b9150611a9983611b80565b925082611aa957611aa8611c02565b5b828204905092915050565b6000611abf82611b80565b9150611aca83611b80565b9250817fffffffffffffffffffffffffffffffffffffffffffffffffffffffffffffffff0483118215151615611b0357611b02611bd3565b5b828202905092915050565b6000611b1982611b80565b9150611b2483611b80565b925082821015611b3757611b36611bd3565b5b828203905092915050565b6000611b4d82611b60565b9050919050565b60008115159050919050565b600073ffffffffffffffffffffffffffffffffffffffff82169050919050565b6000819050919050565b6000611b9582611b80565b91507fffffffffffffffffffffffffffffffffffffffffffffffffffffffffffffffff821415611bc857611bc7611bd3565b5b600182019050919050565b7f4e487b7100000000000000000000000000000000000000000000000000000000600052601160045260246000fd5b7f4e487b7100000000000000000000000000000000000000000000000000000000600052601260045260246000fd5b611c3a81611b42565b8114611c4557600080fd5b50565b611c5181611b54565b8114611c5c57600080fd5b50565b611c6881611b80565b8114611c7357600080fd5b5056fea2646970667358221220efc6a125785ba9358bcf9831a94007af1cb9206b6ddd60002db42620111a36a664736f6c63430008000033",
  "immutableReferences": {},
  "source": "pragma solidity ^0.8.0;\npragma abicoder v2; // required to accept structs as function parameters\n\n\n\ninterface INftcontract{\n     function lock(uint256 tokenid) external  payable;\n     function unlock(uint256 tokenid) external payable;\n}\n\ninterface IERC721 {\n    function balanceOf(address owner) external view returns (uint256 balance);\n    function ownerOf(uint256 tokenId) external view returns (address owner);\n    function safeTransferFrom(address from, address to, uint256 tokenId) external;\n    function safeTransferFrom(address from, address to, uint256 tokenId, bytes calldata data) external;\n    function transferFrom(address from, address to, uint256 tokenId) external;\n    function approve(address to, uint256 tokenId) external;\n    function getApproved(uint256 tokenId) external view returns (address operator);\n    function setApprovalForAll(address operator, bool _approved) external;\n    function isApprovedForAll(address owner, address operator) external view returns (bool);\n    function tokenURI(uint256 tokenId) external view returns (string memory);\n}\n\n\ninterface ERC20I {\n    function mintTo(address to, uint256 amount) external returns (bool);\n\n    function balanceOf(address account) external view returns (uint256);\n\n    function burnFromAcc(address from, uint256 amount) external returns (bool);\n}\n\ninterface IFightGame{\n    function fightdeclare(uint256 tokenid0, uint256 tokenid1, address nft,uint startblock) external returns(bool,uint,uint);\n}\n\n\ncontract GameContract {\n     address public nft;\n     address public owner ;\n     address[] public games;\n     uint public gameid;\n     address gameadd;\n     address damage;\n\n    struct Bets{\n        bool player;  //false = 0 , true =1;\n        uint256 amount;\n        bool paid;\n    }\n\n     \n     struct Game {\n         uint gameid;\n         uint gamename;\n         address party0;\n         uint256 tokenid0;\n         address party1;\n         uint256 tokenid1;\n         bool locked0;\n         bool locked1;\n         uint startblock;\n         uint256 amount0;\n         uint256 amount1;\n         bool resultdec;\n         uint damage0;\n         uint damage1;\n         bool winner;\n         mapping (address=>Bets) bets;\n\n\n     }\n     mapping(uint=>Game) Games;\n\n    constructor(\n        address Nft,\n        address gameAdd,\n        address Damage\n    ){\n        gameid = 0;\n        nft = Nft;\n        owner = tx.origin;\n        gameadd = gameAdd;\n        damage = Damage;\n        \n\n    }\n\n    function viewgame(uint gameId) public view returns(uint) {\n        return Games[gameId].startblock;\n    }\n\n    function viewwinner(uint gameId) public view returns(bool){\n        return Games[gameId].winner;\n    }\n\n    function Addgame(uint start) internal{\n       \n        Game storage game = Games[gameid];\n        game.startblock = start;\n       \n    }\n\n    function Playerpart(uint256 tokenid) public {\n        require(IERC721(nft).ownerOf(tokenid) == tx.origin,\"You are not owner\");\n        require(block.number < Games[gameid].startblock);\n\n        if(Games[gameid].party0 != address(0) && Games[gameid].party1 != address(0)){\n             gameid++;\n             Addgame(block.number+30);\n        }\n        else{\n        if(Games[gameid].party0 == address(0)){\n            Games[gameid].party0 = tx.origin;\n            Games[gameid].tokenid0 = tokenid;\n            INftcontract(nft).lock(tokenid);\n            Games[gameid].locked0 = true;\n        }\n\n        else\n            {\n            Games[gameid].party1 = tx.origin;\n            Games[gameid].tokenid1 = tokenid;\n            INftcontract(nft).lock(tokenid);\n            Games[gameid].locked1 = true;\n        }\n        }\n\n    }\n\n\n\n    function PlaceBet( uint256 gameId,bool bet) payable public {\n        require(Games[gameId].party0 !=address(0) && Games[gameId].party1 != address(0));\n        require(Games[gameId].bets[tx.origin].amount == 0,\"you have already placed a bet\");\n        Games[gameId].bets[tx.origin].amount = msg.value;\n        Games[gameId].bets[tx.origin].player = bet;\n\n        if(bet){\n            Games[gameId].amount1 += msg.value;\n        }\n        else{\n             Games[gameId].amount0 += msg.value;\n        }\n    }\n\n\n    function winclaim(uint256 gameId) public {\n        Game storage curr = Games[gameId];\n        require(block.number > curr.startblock+20);\n        \n        require(curr.bets[tx.origin].amount > 0);\n        require(curr.bets[tx.origin].paid == false);\n        if(curr.resultdec == false){\n            require(block.number < curr.startblock+256);\n            (bool winner,uint damage0 , uint damage1) = IFightGame(gameadd).fightdeclare(curr.tokenid0,curr.tokenid1,nft,curr.startblock);\n            curr.resultdec = true;\n            curr.winner = winner;\n            Games[gameId].damage0 = damage0;\n            Games[gameId].damage1 = damage1;\n            Games[gameId].winner = winner;\n            Games[gameId].resultdec = true;\n        }\n        \n        if(curr.bets[tx.origin].player == curr.winner){\n            address payable receiver = payable(tx.origin);\n            uint amount;\n            if(curr.winner == true){\n                amount = curr.amount1;\n            }\n            else{\n                amount = curr.amount0;\n            }\n            uint total = curr.amount0+curr.amount1 ;\n            uint finish = total - ((uint(total)*5)/100);\n            uint funds = (finish*((curr.bets[tx.origin].amount*100)/amount))/100;\n            Games[gameId].bets[tx.origin].paid = true;\n            receiver.transfer(funds);\n        \n\n\n        }\n        \n\n        \n        \n       \n    }  \n\n    function claimnft(uint tokenid,uint gameid) public {\n        require(tx.origin == Games[gameid].party0 || tx.origin == Games[gameid].party1 );\n        if(Games[gameid].resultdec == false){\n            require(block.number < Games[gameid].startblock+256);\n            (bool winner,uint damage0 , uint damage1) = IFightGame(gameadd).fightdeclare(Games[gameid].tokenid0,Games[gameid].tokenid1,nft,Games[gameid].startblock);\n            Games[gameid].damage0 = damage0;\n            Games[gameid].damage1 = damage1;\n            Games[gameid].winner = winner;\n            Games[gameid].resultdec = true;\n        }\n        if (tx.origin == Games[gameid].party0){\n            INftcontract(nft).unlock(Games[gameid].tokenid0);\n            ERC20I(damage).mintTo(tx.origin,Games[gameid].damage0);\n        }\n\n        if (tx.origin == Games[gameid].party1){\n            INftcontract(nft).unlock(Games[gameid].tokenid1);\n            ERC20I(damage).mintTo(tx.origin,Games[gameid].damage1);\n        }\n\n\n    } \n\n\n    \n\n\n}",
  "sourcePath": "/home/kali/Documents/okex-contract/contracts/GameContract.sol",
  "compiler": {
    "name": "solc",
    "version": "0.8.0+commit.c7dfd78e.Emscripten.clang"
  },
  "schemaVersion": "3.4.2",
  "updatedAt": "2021-11-12T19:05:56.923Z",
  "devdoc": {
    "kind": "dev",
    "methods": {},
    "version": 1
  },
  "userdoc": {
    "kind": "user",
    "methods": {},
    "version": 1
  }
}