{
  "contractName": "Nftcontract",
  "abi": [
    {
      "inputs": [
        {
          "internalType": "string",
          "name": "symbol",
          "type": "string"
        },
        {
          "internalType": "string",
          "name": "name",
          "type": "string"
        },
        {
          "internalType": "string",
          "name": "uri",
          "type": "string"
        },
        {
          "internalType": "string",
          "name": "sign_domain",
          "type": "string"
        }
      ],
      "stateMutability": "nonpayable",
      "type": "constructor"
    },
    {
      "anonymous": false,
      "inputs": [
        {
          "indexed": true,
          "internalType": "address",
          "name": "owner",
          "type": "address"
        },
        {
          "indexed": true,
          "internalType": "address",
          "name": "approved",
          "type": "address"
        },
        {
          "indexed": true,
          "internalType": "uint256",
          "name": "tokenId",
          "type": "uint256"
        }
      ],
      "name": "Approval",
      "type": "event"
    },
    {
      "anonymous": false,
      "inputs": [
        {
          "indexed": true,
          "internalType": "address",
          "name": "owner",
          "type": "address"
        },
        {
          "indexed": true,
          "internalType": "address",
          "name": "operator",
          "type": "address"
        },
        {
          "indexed": false,
          "internalType": "bool",
          "name": "approved",
          "type": "bool"
        }
      ],
      "name": "ApprovalForAll",
      "type": "event"
    },
    {
      "anonymous": false,
      "inputs": [
        {
          "indexed": false,
          "internalType": "address",
          "name": "hostaddress",
          "type": "address"
        },
        {
          "indexed": false,
          "internalType": "string",
          "name": "symbol",
          "type": "string"
        }
      ],
      "name": "MadeContact",
      "type": "event"
    },
    {
      "anonymous": false,
      "inputs": [
        {
          "indexed": true,
          "internalType": "address",
          "name": "from",
          "type": "address"
        },
        {
          "indexed": true,
          "internalType": "address",
          "name": "to",
          "type": "address"
        },
        {
          "indexed": true,
          "internalType": "uint256",
          "name": "tokenId",
          "type": "uint256"
        }
      ],
      "name": "Transfer",
      "type": "event"
    },
    {
      "inputs": [],
      "name": "MINTER_ROLE",
      "outputs": [
        {
          "internalType": "bytes32",
          "name": "",
          "type": "bytes32"
        }
      ],
      "stateMutability": "view",
      "type": "function"
    },
    {
      "inputs": [
        {
          "internalType": "address",
          "name": "to",
          "type": "address"
        },
        {
          "internalType": "uint256",
          "name": "tokenId",
          "type": "uint256"
        }
      ],
      "name": "approve",
      "outputs": [],
      "stateMutability": "nonpayable",
      "type": "function"
    },
    {
      "inputs": [
        {
          "internalType": "address",
          "name": "owner",
          "type": "address"
        }
      ],
      "name": "balanceOf",
      "outputs": [
        {
          "internalType": "uint256",
          "name": "",
          "type": "uint256"
        }
      ],
      "stateMutability": "view",
      "type": "function"
    },
    {
      "inputs": [],
      "name": "eventdata",
      "outputs": [
        {
          "internalType": "string",
          "name": "",
          "type": "string"
        }
      ],
      "stateMutability": "view",
      "type": "function"
    },
    {
      "inputs": [
        {
          "internalType": "uint256",
          "name": "tokenId",
          "type": "uint256"
        }
      ],
      "name": "getApproved",
      "outputs": [
        {
          "internalType": "address",
          "name": "",
          "type": "address"
        }
      ],
      "stateMutability": "view",
      "type": "function"
    },
    {
      "inputs": [
        {
          "internalType": "address",
          "name": "owner",
          "type": "address"
        },
        {
          "internalType": "address",
          "name": "operator",
          "type": "address"
        }
      ],
      "name": "isApprovedForAll",
      "outputs": [
        {
          "internalType": "bool",
          "name": "",
          "type": "bool"
        }
      ],
      "stateMutability": "view",
      "type": "function"
    },
    {
      "inputs": [],
      "name": "name",
      "outputs": [
        {
          "internalType": "string",
          "name": "",
          "type": "string"
        }
      ],
      "stateMutability": "view",
      "type": "function"
    },
    {
      "inputs": [
        {
          "internalType": "address",
          "name": "",
          "type": "address"
        }
      ],
      "name": "own",
      "outputs": [
        {
          "internalType": "int256",
          "name": "",
          "type": "int256"
        }
      ],
      "stateMutability": "view",
      "type": "function"
    },
    {
      "inputs": [],
      "name": "owner",
      "outputs": [
        {
          "internalType": "address",
          "name": "",
          "type": "address"
        }
      ],
      "stateMutability": "view",
      "type": "function"
    },
    {
      "inputs": [
        {
          "internalType": "uint256",
          "name": "tokenId",
          "type": "uint256"
        }
      ],
      "name": "ownerOf",
      "outputs": [
        {
          "internalType": "address",
          "name": "",
          "type": "address"
        }
      ],
      "stateMutability": "view",
      "type": "function"
    },
    {
      "inputs": [
        {
          "internalType": "uint256",
          "name": "",
          "type": "uint256"
        },
        {
          "internalType": "uint256",
          "name": "",
          "type": "uint256"
        }
      ],
      "name": "power",
      "outputs": [
        {
          "internalType": "uint256",
          "name": "",
          "type": "uint256"
        }
      ],
      "stateMutability": "view",
      "type": "function"
    },
    {
      "inputs": [
        {
          "internalType": "address",
          "name": "from",
          "type": "address"
        },
        {
          "internalType": "address",
          "name": "to",
          "type": "address"
        },
        {
          "internalType": "uint256",
          "name": "tokenId",
          "type": "uint256"
        }
      ],
      "name": "safeTransferFrom",
      "outputs": [],
      "stateMutability": "nonpayable",
      "type": "function"
    },
    {
      "inputs": [
        {
          "internalType": "address",
          "name": "from",
          "type": "address"
        },
        {
          "internalType": "address",
          "name": "to",
          "type": "address"
        },
        {
          "internalType": "uint256",
          "name": "tokenId",
          "type": "uint256"
        },
        {
          "internalType": "bytes",
          "name": "_data",
          "type": "bytes"
        }
      ],
      "name": "safeTransferFrom",
      "outputs": [],
      "stateMutability": "nonpayable",
      "type": "function"
    },
    {
      "inputs": [
        {
          "internalType": "address",
          "name": "operator",
          "type": "address"
        },
        {
          "internalType": "bool",
          "name": "approved",
          "type": "bool"
        }
      ],
      "name": "setApprovalForAll",
      "outputs": [],
      "stateMutability": "nonpayable",
      "type": "function"
    },
    {
      "inputs": [
        {
          "internalType": "bytes4",
          "name": "interfaceId",
          "type": "bytes4"
        }
      ],
      "name": "supportsInterface",
      "outputs": [
        {
          "internalType": "bool",
          "name": "",
          "type": "bool"
        }
      ],
      "stateMutability": "view",
      "type": "function"
    },
    {
      "inputs": [],
      "name": "symbol",
      "outputs": [
        {
          "internalType": "string",
          "name": "",
          "type": "string"
        }
      ],
      "stateMutability": "view",
      "type": "function"
    },
    {
      "inputs": [
        {
          "internalType": "uint256",
          "name": "tokenId",
          "type": "uint256"
        }
      ],
      "name": "tokenURI",
      "outputs": [
        {
          "internalType": "string",
          "name": "",
          "type": "string"
        }
      ],
      "stateMutability": "view",
      "type": "function"
    },
    {
      "inputs": [
        {
          "internalType": "address",
          "name": "from",
          "type": "address"
        },
        {
          "internalType": "address",
          "name": "to",
          "type": "address"
        },
        {
          "internalType": "uint256",
          "name": "tokenId",
          "type": "uint256"
        }
      ],
      "name": "transferFrom",
      "outputs": [],
      "stateMutability": "nonpayable",
      "type": "function"
    },
    {
      "inputs": [
        {
          "internalType": "address",
          "name": "addr",
          "type": "address"
        }
      ],
      "name": "addmaintainer",
      "outputs": [],
      "stateMutability": "nonpayable",
      "type": "function"
    },
    {
      "inputs": [
        {
          "internalType": "address",
          "name": "redeemer",
          "type": "address"
        },
        {
          "components": [
            {
              "internalType": "uint256",
              "name": "tokenId",
              "type": "uint256"
            },
            {
              "internalType": "string",
              "name": "uri",
              "type": "string"
            },
            {
              "internalType": "uint256",
              "name": "price",
              "type": "uint256"
            },
            {
              "internalType": "uint256[10]",
              "name": "power",
              "type": "uint256[10]"
            },
            {
              "internalType": "bytes",
              "name": "signature",
              "type": "bytes"
            }
          ],
          "internalType": "struct Nftcontract.NFTVoucher",
          "name": "voucher",
          "type": "tuple"
        }
      ],
      "name": "redeem",
      "outputs": [
        {
          "internalType": "uint256",
          "name": "",
          "type": "uint256"
        }
      ],
      "stateMutability": "payable",
      "type": "function"
    },
    {
      "inputs": [
        {
          "internalType": "uint256",
          "name": "tokenId",
          "type": "uint256"
        }
      ],
      "name": "getData",
      "outputs": [
        {
          "internalType": "uint256[10]",
          "name": "",
          "type": "uint256[10]"
        }
      ],
      "stateMutability": "view",
      "type": "function"
    },
    {
      "inputs": [
        {
          "internalType": "uint256",
          "name": "tokenId",
          "type": "uint256"
        }
      ],
      "name": "getMix",
      "outputs": [
        {
          "internalType": "string",
          "name": "x",
          "type": "string"
        },
        {
          "internalType": "uint256[10]",
          "name": "y",
          "type": "uint256[10]"
        }
      ],
      "stateMutability": "view",
      "type": "function"
    },
    {
      "inputs": [
        {
          "internalType": "uint256",
          "name": "tokenid",
          "type": "uint256"
        }
      ],
      "name": "lock",
      "outputs": [],
      "stateMutability": "payable",
      "type": "function"
    },
    {
      "inputs": [
        {
          "internalType": "uint256",
          "name": "tokenid",
          "type": "uint256"
        }
      ],
      "name": "unlock",
      "outputs": [],
      "stateMutability": "payable",
      "type": "function"
    },
    {
      "inputs": [
        {
          "internalType": "address",
          "name": "_newmaster",
          "type": "address"
        }
      ],
      "name": "setMasterContract",
      "outputs": [
        {
          "internalType": "bool",
          "name": "",
          "type": "bool"
        }
      ],
      "stateMutability": "nonpayable",
      "type": "function"
    }
  ],
  "bytecode": "0x61012060405260006008553480156200001757600080fd5b50604051620049fc380380620049fc83398181016040528101906200003d9190620003c0565b600780546200004c9062000605565b80601f01602080910402602001604051908101604052809291908181526020018280546200007a9062000605565b8015620000cb5780601f106200009f57610100808354040283529160200191620000cb565b820191906000526020600020905b815481529060010190602001808311620000ad57829003601f168201915b50505050506040518060400160405280600181526020017f310000000000000000000000000000000000000000000000000000000000000081525084868160009080519060200190620001209291906200029e565b508060019080519060200190620001399291906200029e565b50505060008280519060200120905060008280519060200120905060007f8b73c3c69bb8fe3d512ecc4cf759cc79239f7b179b0ffacaa9a75d522b39400f90508260c081815250508160e081815250504660a08181525050620001a48184846200026260201b60201c565b6080818152505080610100818152505050505050506001600b60003273ffffffffffffffffffffffffffffffffffffffff1673ffffffffffffffffffffffffffffffffffffffff168152602001908152602001600020819055508060079080519060200190620002169291906200029e565b5032600a60006101000a81548173ffffffffffffffffffffffffffffffffffffffff021916908373ffffffffffffffffffffffffffffffffffffffff1602179055505050505062000699565b600083838346306040516020016200027f959493929190620004c3565b6040516020818303038152906040528051906020012090509392505050565b828054620002ac9062000605565b90600052602060002090601f016020900481019282620002d057600085556200031c565b82601f10620002eb57805160ff19168380011785556200031c565b828001600101855582156200031c579182015b828111156200031b578251825591602001919060010190620002fe565b5b5090506200032b91906200032f565b5090565b5b808211156200034a57600081600090555060010162000330565b5090565b6000620003656200035f8462000554565b62000520565b9050828152602081018484840111156200037e57600080fd5b6200038b848285620005cf565b509392505050565b600082601f830112620003a557600080fd5b8151620003b78482602086016200034e565b91505092915050565b60008060008060808587031215620003d757600080fd5b600085015167ffffffffffffffff811115620003f257600080fd5b620004008782880162000393565b945050602085015167ffffffffffffffff8111156200041e57600080fd5b6200042c8782880162000393565b935050604085015167ffffffffffffffff8111156200044a57600080fd5b620004588782880162000393565b925050606085015167ffffffffffffffff8111156200047657600080fd5b620004848782880162000393565b91505092959194509250565b6200049b8162000587565b82525050565b620004ac816200059b565b82525050565b620004bd81620005c5565b82525050565b600060a082019050620004da6000830188620004a1565b620004e96020830187620004a1565b620004f86040830186620004a1565b620005076060830185620004b2565b62000516608083018462000490565b9695505050505050565b6000604051905081810181811067ffffffffffffffff821117156200054a57620005496200066a565b5b8060405250919050565b600067ffffffffffffffff8211156200057257620005716200066a565b5b601f19601f8301169050602081019050919050565b60006200059482620005a5565b9050919050565b6000819050919050565b600073ffffffffffffffffffffffffffffffffffffffff82169050919050565b6000819050919050565b60005b83811015620005ef578082015181840152602081019050620005d2565b83811115620005ff576000848401525b50505050565b600060028204905060018216806200061e57607f821691505b602082108114156200063557620006346200063b565b5b50919050565b7f4e487b7100000000000000000000000000000000000000000000000000000000600052602260045260246000fd5b7f4e487b7100000000000000000000000000000000000000000000000000000000600052604160045260246000fd5b60805160a05160c05160e0516101005161431e620006de60003960006127380152600061277a01526000612759015260006126e50152600061270d015261431e6000f3fe6080604052600436106101665760003560e01c806385d8d417116100d1578063b8dd93781161008a578063d539139311610064578063d53913931461057f578063dd467064146105aa578063e985e9c5146105c6578063f349e3e31461060357610166565b8063b8dd9378146104da578063c04f01fc14610505578063c87b56dd1461054257610166565b806385d8d417146103c45780638da5cb5b146103f457806395d89b411461041f578063966a8ffa1461044a578063a22cb46514610488578063b88d4fde146104b157610166565b80632a3a236f116101235780632a3a236f1461029f57806342842e0e146102dc578063569b66f0146103055780636198e3391461032e5780636352211e1461034a57806370a082311461038757610166565b80630178fe3f1461016b57806301ffc9a7146101a857806306fdde03146101e5578063081812fc14610210578063095ea7b31461024d57806323b872dd14610276575b600080fd5b34801561017757600080fd5b50610192600480360381019061018d9190612dac565b610640565b60405161019f9190613943565b60405180910390f35b3480156101b457600080fd5b506101cf60048036038101906101ca9190612d5a565b61069e565b6040516101dc919061395f565b60405180910390f35b3480156101f157600080fd5b506101fa610780565b6040516102079190613a7f565b60405180910390f35b34801561021c57600080fd5b5061023760048036038101906102329190612dac565b610812565b60405161024491906138dc565b60405180910390f35b34801561025957600080fd5b50610274600480360381019061026f9190612d1e565b610897565b005b34801561028257600080fd5b5061029d60048036038101906102989190612bc4565b6109af565b005b3480156102ab57600080fd5b506102c660048036038101906102c19190612b5f565b610a0f565b6040516102d3919061395f565b60405180910390f35b3480156102e857600080fd5b5061030360048036038101906102fe9190612bc4565b610aeb565b005b34801561031157600080fd5b5061032c60048036038101906103279190612b5f565b610b0b565b005b61034860048036038101906103439190612dac565b610b53565b005b34801561035657600080fd5b50610371600480360381019061036c9190612dac565b610c13565b60405161037e91906138dc565b60405180910390f35b34801561039357600080fd5b506103ae60048036038101906103a99190612b5f565b610cc5565b6040516103bb9190613dd2565b60405180910390f35b6103de60048036038101906103d99190612cca565b610d7d565b6040516103eb9190613dd2565b60405180910390f35b34801561040057600080fd5b50610409610f34565b60405161041691906138dc565b60405180910390f35b34801561042b57600080fd5b50610434610f5a565b6040516104419190613a7f565b60405180910390f35b34801561045657600080fd5b50610471600480360381019061046c9190612dac565b610fec565b60405161047f929190613aa1565b60405180910390f35b34801561049457600080fd5b506104af60048036038101906104aa9190612c8e565b61105a565b005b3480156104bd57600080fd5b506104d860048036038101906104d39190612c13565b6111db565b005b3480156104e657600080fd5b506104ef61123d565b6040516104fc9190613a7f565b60405180910390f35b34801561051157600080fd5b5061052c60048036038101906105279190612dd5565b6112cb565b6040516105399190613dd2565b60405180910390f35b34801561054e57600080fd5b5061056960048036038101906105649190612dac565b6112f3565b6040516105769190613a7f565b60405180910390f35b34801561058b57600080fd5b50610594611445565b6040516105a1919061397a565b60405180910390f35b6105c460048036038101906105bf9190612dac565b611469565b005b3480156105d257600080fd5b506105ed60048036038101906105e89190612b88565b61159f565b6040516105fa919061395f565b60405180910390f35b34801561060f57600080fd5b5061062a60048036038101906106259190612b5f565b611633565b6040516106379190613a64565b60405180910390f35b61064861296c565b600c6000838152602001908152602001600020600a806020026040519081016040528092919082600a8015610692576020028201915b81548152602001906001019080831161067e575b50505050509050919050565b60007f80ac58cd000000000000000000000000000000000000000000000000000000007bffffffffffffffffffffffffffffffffffffffffffffffffffffffff1916827bffffffffffffffffffffffffffffffffffffffffffffffffffffffff1916148061076957507f5b5e139f000000000000000000000000000000000000000000000000000000007bffffffffffffffffffffffffffffffffffffffffffffffffffffffff1916827bffffffffffffffffffffffffffffffffffffffffffffffffffffffff1916145b8061077957506107788261164b565b5b9050919050565b60606000805461078f90614109565b80601f01602080910402602001604051908101604052809291908181526020018280546107bb90614109565b80156108085780601f106107dd57610100808354040283529160200191610808565b820191906000526020600020905b8154815290600101906020018083116107eb57829003601f168201915b5050505050905090565b600061081d826116b5565b61085c576040517f08c379a000000000000000000000000000000000000000000000000000000000815260040161085390613cd2565b60405180910390fd5b6004600083815260200190815260200160002060009054906101000a900473ffffffffffffffffffffffffffffffffffffffff169050919050565b60006108a282610c13565b90508073ffffffffffffffffffffffffffffffffffffffff168373ffffffffffffffffffffffffffffffffffffffff161415610913576040517f08c379a000000000000000000000000000000000000000000000000000000000815260040161090a90613d52565b60405180910390fd5b8073ffffffffffffffffffffffffffffffffffffffff16610932611721565b73ffffffffffffffffffffffffffffffffffffffff16148061096157506109608161095b611721565b61159f565b5b6109a0576040517f08c379a000000000000000000000000000000000000000000000000000000000815260040161099790613bd2565b60405180910390fd5b6109aa8383611729565b505050565b6109c06109ba611721565b826117e2565b6109ff576040517f08c379a00000000000000000000000000000000000000000000000000000000081526004016109f690613d72565b60405180910390fd5b610a0a8383836118c0565b505050565b6000600a60009054906101000a900473ffffffffffffffffffffffffffffffffffffffff1673ffffffffffffffffffffffffffffffffffffffff163373ffffffffffffffffffffffffffffffffffffffff1614610aa1576040517f08c379a0000000000000000000000000000000000000000000000000000000008152600401610a9890613cf2565b60405180910390fd5b81600d60006101000a81548173ffffffffffffffffffffffffffffffffffffffff021916908373ffffffffffffffffffffffffffffffffffffffff16021790555060019050919050565b610b06838383604051806020016040528060008152506111db565b505050565b6001600b60008373ffffffffffffffffffffffffffffffffffffffff1673ffffffffffffffffffffffffffffffffffffffff1681526020019081526020016000208190555050565b3373ffffffffffffffffffffffffffffffffffffffff16600d60009054906101000a900473ffffffffffffffffffffffffffffffffffffffff1673ffffffffffffffffffffffffffffffffffffffff1614610be3576040517f08c379a0000000000000000000000000000000000000000000000000000000008152600401610bda90613db2565b60405180910390fd5b610c10600d60009054906101000a900473ffffffffffffffffffffffffffffffffffffffff1632836118c0565b50565b6000806002600084815260200190815260200160002060009054906101000a900473ffffffffffffffffffffffffffffffffffffffff169050600073ffffffffffffffffffffffffffffffffffffffff168173ffffffffffffffffffffffffffffffffffffffff161415610cbc576040517f08c379a0000000000000000000000000000000000000000000000000000000008152600401610cb390613c12565b60405180910390fd5b80915050919050565b60008073ffffffffffffffffffffffffffffffffffffffff168273ffffffffffffffffffffffffffffffffffffffff161415610d36576040517f08c379a0000000000000000000000000000000000000000000000000000000008152600401610d2d90613bf2565b60405180910390fd5b600360008373ffffffffffffffffffffffffffffffffffffffff1673ffffffffffffffffffffffffffffffffffffffff168152602001908152602001600020549050919050565b600080610d8983611b1c565b90508260400135341015610dd2576040517f08c379a0000000000000000000000000000000000000000000000000000000008152600401610dc990613c72565b60405180910390fd5b82606001600c60008560000135815260200190815260200160002090600a610dfb92919061298f565b50610e2c600a60009054906101000a900473ffffffffffffffffffffffffffffffffffffffff168460000135611b8f565b610e8c8360000135848060200190610e449190613e44565b8080601f016020809104026020016040519081016040528093929190818152602001838380828437600081840152601f19601f82011690508083019250505050505050611d5d565b610ebd600a60009054906101000a900473ffffffffffffffffffffffffffffffffffffffff168585600001356118c0565b600a60009054906101000a900473ffffffffffffffffffffffffffffffffffffffff1673ffffffffffffffffffffffffffffffffffffffff166108fc349081150290604051600060405180830381858888f19350505050158015610f25573d6000803e3d6000fd5b50826000013591505092915050565b600a60009054906101000a900473ffffffffffffffffffffffffffffffffffffffff1681565b606060018054610f6990614109565b80601f0160208091040260200160405190810160405280929190818152602001828054610f9590614109565b8015610fe25780601f10610fb757610100808354040283529160200191610fe2565b820191906000526020600020905b815481529060010190602001808311610fc557829003601f168201915b5050505050905090565b6060610ff661296c565b610fff836112f3565b600c600085815260200190815260200160002080600a806020026040519081016040528092919082600a801561104a576020028201915b815481526020019060010190808311611036575b5050505050905091509150915091565b611062611721565b73ffffffffffffffffffffffffffffffffffffffff168273ffffffffffffffffffffffffffffffffffffffff1614156110d0576040517f08c379a00000000000000000000000000000000000000000000000000000000081526004016110c790613b72565b60405180910390fd5b80600560006110dd611721565b73ffffffffffffffffffffffffffffffffffffffff1673ffffffffffffffffffffffffffffffffffffffff16815260200190815260200160002060008473ffffffffffffffffffffffffffffffffffffffff1673ffffffffffffffffffffffffffffffffffffffff16815260200190815260200160002060006101000a81548160ff0219169083151502179055508173ffffffffffffffffffffffffffffffffffffffff1661118a611721565b73ffffffffffffffffffffffffffffffffffffffff167f17307eab39ab6107e8899845ad3d59bd9653f200f220920489ca2b5937696c31836040516111cf919061395f565b60405180910390a35050565b6111ec6111e6611721565b836117e2565b61122b576040517f08c379a000000000000000000000000000000000000000000000000000000000815260040161122290613d72565b60405180910390fd5b61123784848484611dd1565b50505050565b6009805461124a90614109565b80601f016020809104026020016040519081016040528092919081815260200182805461127690614109565b80156112c35780601f10611298576101008083540402835291602001916112c3565b820191906000526020600020905b8154815290600101906020018083116112a657829003601f168201915b505050505081565b600c60205281600052604060002081600a81106112e757600080fd5b01600091509150505481565b60606112fe826116b5565b61133d576040517f08c379a000000000000000000000000000000000000000000000000000000000815260040161133490613cb2565b60405180910390fd5b600060066000848152602001908152602001600020805461135d90614109565b80601f016020809104026020016040519081016040528092919081815260200182805461138990614109565b80156113d65780601f106113ab576101008083540402835291602001916113d6565b820191906000526020600020905b8154815290600101906020018083116113b957829003601f168201915b5050505050905060006113e7611e2d565b90506000815114156113fd578192505050611440565b60008251111561143257808260405160200161141a929190613881565b60405160208183030381529060405292505050611440565b61143b84611e44565b925050505b919050565b7f9f2df0fed2c77648de5860a4cc508cd0818c85b8b8a1ab4ceeef8d981c8956a681565b3373ffffffffffffffffffffffffffffffffffffffff16600d60009054906101000a900473ffffffffffffffffffffffffffffffffffffffff1673ffffffffffffffffffffffffffffffffffffffff16146114f9576040517f08c379a00000000000000000000000000000000000000000000000000000000081526004016114f090613db2565b60405180910390fd5b3273ffffffffffffffffffffffffffffffffffffffff1661151982610c13565b73ffffffffffffffffffffffffffffffffffffffff161461156f576040517f08c379a000000000000000000000000000000000000000000000000000000000815260040161156690613d92565b60405180910390fd5b61159c32600d60009054906101000a900473ffffffffffffffffffffffffffffffffffffffff16836118c0565b50565b6000600560008473ffffffffffffffffffffffffffffffffffffffff1673ffffffffffffffffffffffffffffffffffffffff16815260200190815260200160002060008373ffffffffffffffffffffffffffffffffffffffff1673ffffffffffffffffffffffffffffffffffffffff16815260200190815260200160002060009054906101000a900460ff16905092915050565b600b6020528060005260406000206000915090505481565b60007f01ffc9a7000000000000000000000000000000000000000000000000000000007bffffffffffffffffffffffffffffffffffffffffffffffffffffffff1916827bffffffffffffffffffffffffffffffffffffffffffffffffffffffff1916149050919050565b60008073ffffffffffffffffffffffffffffffffffffffff166002600084815260200190815260200160002060009054906101000a900473ffffffffffffffffffffffffffffffffffffffff1673ffffffffffffffffffffffffffffffffffffffff1614159050919050565b600033905090565b816004600083815260200190815260200160002060006101000a81548173ffffffffffffffffffffffffffffffffffffffff021916908373ffffffffffffffffffffffffffffffffffffffff160217905550808273ffffffffffffffffffffffffffffffffffffffff1661179c83610c13565b73ffffffffffffffffffffffffffffffffffffffff167f8c5be1e5ebec7d5bd14f71427d1e84f3dd0314c0f7b2291e5b200ac8c7c3b92560405160405180910390a45050565b60006117ed826116b5565b61182c576040517f08c379a000000000000000000000000000000000000000000000000000000000815260040161182390613bb2565b60405180910390fd5b600061183783610c13565b90508073ffffffffffffffffffffffffffffffffffffffff168473ffffffffffffffffffffffffffffffffffffffff1614806118a657508373ffffffffffffffffffffffffffffffffffffffff1661188e84610812565b73ffffffffffffffffffffffffffffffffffffffff16145b806118b757506118b6818561159f565b5b91505092915050565b8273ffffffffffffffffffffffffffffffffffffffff166118e082610c13565b73ffffffffffffffffffffffffffffffffffffffff1614611936576040517f08c379a000000000000000000000000000000000000000000000000000000000815260040161192d90613d12565b60405180910390fd5b600073ffffffffffffffffffffffffffffffffffffffff168273ffffffffffffffffffffffffffffffffffffffff1614156119a6576040517f08c379a000000000000000000000000000000000000000000000000000000000815260040161199d90613b52565b60405180910390fd5b6119b1838383611eeb565b6119bc600082611729565b6001600360008573ffffffffffffffffffffffffffffffffffffffff1673ffffffffffffffffffffffffffffffffffffffff1681526020019081526020016000206000828254611a0c9190613ffe565b925050819055506001600360008473ffffffffffffffffffffffffffffffffffffffff1673ffffffffffffffffffffffffffffffffffffffff1681526020019081526020016000206000828254611a639190613f77565b92505081905550816002600083815260200190815260200160002060006101000a81548173ffffffffffffffffffffffffffffffffffffffff021916908373ffffffffffffffffffffffffffffffffffffffff160217905550808273ffffffffffffffffffffffffffffffffffffffff168473ffffffffffffffffffffffffffffffffffffffff167fddf252ad1be2c89b69c2b068fc378daa952ba7f163c4a11628f55a4df523b3ef60405160405180910390a4505050565b600080611b2883611ef0565b9050611b878184806101a00190611b3f9190613ded565b8080601f016020809104026020016040519081016040528093929190818152602001838380828437600081840152601f19601f82011690508083019250505050505050611f75565b915050919050565b600073ffffffffffffffffffffffffffffffffffffffff168273ffffffffffffffffffffffffffffffffffffffff161415611bff576040517f08c379a0000000000000000000000000000000000000000000000000000000008152600401611bf690613c92565b60405180910390fd5b611c08816116b5565b15611c48576040517f08c379a0000000000000000000000000000000000000000000000000000000008152600401611c3f90613b32565b60405180910390fd5b611c5460008383611eeb565b6001600360008473ffffffffffffffffffffffffffffffffffffffff1673ffffffffffffffffffffffffffffffffffffffff1681526020019081526020016000206000828254611ca49190613f77565b92505081905550816002600083815260200190815260200160002060006101000a81548173ffffffffffffffffffffffffffffffffffffffff021916908373ffffffffffffffffffffffffffffffffffffffff160217905550808273ffffffffffffffffffffffffffffffffffffffff16600073ffffffffffffffffffffffffffffffffffffffff167fddf252ad1be2c89b69c2b068fc378daa952ba7f163c4a11628f55a4df523b3ef60405160405180910390a45050565b611d66826116b5565b611da5576040517f08c379a0000000000000000000000000000000000000000000000000000000008152600401611d9c90613c32565b60405180910390fd5b80600660008481526020019081526020016000209080519060200190611dcc9291906129cf565b505050565b611ddc8484846118c0565b611de884848484611f9c565b611e27576040517f08c379a0000000000000000000000000000000000000000000000000000000008152600401611e1e90613b12565b60405180910390fd5b50505050565b606060405180602001604052806000815250905090565b6060611e4f826116b5565b611e8e576040517f08c379a0000000000000000000000000000000000000000000000000000000008152600401611e8590613d32565b60405180910390fd5b6000611e98611e2d565b90506000815111611eb85760405180602001604052806000815250611ee3565b80611ec284612133565b604051602001611ed3929190613881565b6040516020818303038152906040525b915050919050565b505050565b6000611f6e7f3f647c7e4c546ce935e0581d90c54fdc05cfc2bdfd67198c592f3c77a79a01178360000135848060200190611f2b9190613e44565b604051611f39929190613868565b6040518091039020604051602001611f53939291906139e8565b604051602081830303815290604052805190602001206122e0565b9050919050565b6000806000611f8485856122fa565b91509150611f918161237d565b819250505092915050565b6000611fbd8473ffffffffffffffffffffffffffffffffffffffff166126ce565b15612126578373ffffffffffffffffffffffffffffffffffffffff1663150b7a02611fe6611721565b8786866040518563ffffffff1660e01b815260040161200894939291906138f7565b602060405180830381600087803b15801561202257600080fd5b505af192505050801561205357506040513d601f19601f820116820180604052508101906120509190612d83565b60015b6120d6573d8060008114612083576040519150601f19603f3d011682016040523d82523d6000602084013e612088565b606091505b506000815114156120ce576040517f08c379a00000000000000000000000000000000000000000000000000000000081526004016120c590613b12565b60405180910390fd5b805181602001fd5b63150b7a0260e01b7bffffffffffffffffffffffffffffffffffffffffffffffffffffffff1916817bffffffffffffffffffffffffffffffffffffffffffffffffffffffff19161491505061212b565b600190505b949350505050565b6060600082141561217b576040518060400160405280600181526020017f300000000000000000000000000000000000000000000000000000000000000081525090506122db565b600082905060005b600082146121ad5780806121969061413b565b915050600a826121a69190613fcd565b9150612183565b60008167ffffffffffffffff8111156121ef577f4e487b7100000000000000000000000000000000000000000000000000000000600052604160045260246000fd5b6040519080825280601f01601f1916602001820160405280156122215781602001600182028036833780820191505090505b5090505b600085146122d45760018261223a9190613ffe565b9150600a85612249919061418e565b60306122559190613f77565b60f81b818381518110612291577f4e487b7100000000000000000000000000000000000000000000000000000000600052603260045260246000fd5b60200101907effffffffffffffffffffffffffffffffffffffffffffffffffffffffffffff1916908160001a905350600a856122cd9190613fcd565b9450612225565b8093505050505b919050565b60006122f36122ed6126e1565b836127a4565b9050919050565b60008060418351141561233c5760008060006020860151925060408601519150606086015160001a9050612330878285856127d7565b94509450505050612376565b60408351141561236d5760008060208501519150604085015190506123628683836128e4565b935093505050612376565b60006002915091505b9250929050565b600060048111156123b7577f4e487b7100000000000000000000000000000000000000000000000000000000600052602160045260246000fd5b8160048111156123f0577f4e487b7100000000000000000000000000000000000000000000000000000000600052602160045260246000fd5b14156123fb576126cb565b60016004811115612435577f4e487b7100000000000000000000000000000000000000000000000000000000600052602160045260246000fd5b81600481111561246e577f4e487b7100000000000000000000000000000000000000000000000000000000600052602160045260246000fd5b14156124af576040517f08c379a00000000000000000000000000000000000000000000000000000000081526004016124a690613ad2565b60405180910390fd5b600260048111156124e9577f4e487b7100000000000000000000000000000000000000000000000000000000600052602160045260246000fd5b816004811115612522577f4e487b7100000000000000000000000000000000000000000000000000000000600052602160045260246000fd5b1415612563576040517f08c379a000000000000000000000000000000000000000000000000000000000815260040161255a90613af2565b60405180910390fd5b6003600481111561259d577f4e487b7100000000000000000000000000000000000000000000000000000000600052602160045260246000fd5b8160048111156125d6577f4e487b7100000000000000000000000000000000000000000000000000000000600052602160045260246000fd5b1415612617576040517f08c379a000000000000000000000000000000000000000000000000000000000815260040161260e90613b92565b60405180910390fd5b600480811115612650577f4e487b7100000000000000000000000000000000000000000000000000000000600052602160045260246000fd5b816004811115612689577f4e487b7100000000000000000000000000000000000000000000000000000000600052602160045260246000fd5b14156126ca576040517f08c379a00000000000000000000000000000000000000000000000000000000081526004016126c190613c52565b60405180910390fd5b5b50565b600080823b905060008111915050919050565b60007f0000000000000000000000000000000000000000000000000000000000000000461415612733577f000000000000000000000000000000000000000000000000000000000000000090506127a1565b61279e7f00000000000000000000000000000000000000000000000000000000000000007f00000000000000000000000000000000000000000000000000000000000000007f0000000000000000000000000000000000000000000000000000000000000000612932565b90505b90565b600082826040516020016127b99291906138a5565b60405160208183030381529060405280519060200120905092915050565b6000807f7fffffffffffffffffffffffffffffff5d576e7357a4501ddfe92f46681b20a08360001c11156128125760006003915091506128db565b601b8560ff161415801561282a5750601c8560ff1614155b1561283c5760006004915091506128db565b6000600187878787604051600081526020016040526040516128619493929190613a1f565b6020604051602081039080840390855afa158015612883573d6000803e3d6000fd5b505050602060405103519050600073ffffffffffffffffffffffffffffffffffffffff168173ffffffffffffffffffffffffffffffffffffffff1614156128d2576000600192509250506128db565b80600092509250505b94509492505050565b6000806000807f7fffffffffffffffffffffffffffffffffffffffffffffffffffffffffffffff85169150601b8560ff1c019050612924878288856127d7565b935093505050935093915050565b6000838383463060405160200161294d959493929190613995565b6040516020818303038152906040528051906020012090509392505050565b604051806101400160405280600a90602082028036833780820191505090505090565b82600a81019282156129be579160200282015b828111156129bd5782358255916020019190600101906129a2565b5b5090506129cb9190612a55565b5090565b8280546129db90614109565b90600052602060002090601f0160209004810192826129fd5760008555612a44565b82601f10612a1657805160ff1916838001178555612a44565b82800160010185558215612a44579182015b82811115612a43578251825591602001919060010190612a28565b5b509050612a519190612a55565b5090565b5b80821115612a6e576000816000905550600101612a56565b5090565b6000612a85612a8084613ecc565b613e9b565b905082815260208101848484011115612a9d57600080fd5b612aa88482856140c7565b509392505050565b600081359050612abf8161428c565b92915050565b600081359050612ad4816142a3565b92915050565b600081359050612ae9816142ba565b92915050565b600081519050612afe816142ba565b92915050565b600082601f830112612b1557600080fd5b8135612b25848260208601612a72565b91505092915050565b60006101c08284031215612b4157600080fd5b81905092915050565b600081359050612b59816142d1565b92915050565b600060208284031215612b7157600080fd5b6000612b7f84828501612ab0565b91505092915050565b60008060408385031215612b9b57600080fd5b6000612ba985828601612ab0565b9250506020612bba85828601612ab0565b9150509250929050565b600080600060608486031215612bd957600080fd5b6000612be786828701612ab0565b9350506020612bf886828701612ab0565b9250506040612c0986828701612b4a565b9150509250925092565b60008060008060808587031215612c2957600080fd5b6000612c3787828801612ab0565b9450506020612c4887828801612ab0565b9350506040612c5987828801612b4a565b925050606085013567ffffffffffffffff811115612c7657600080fd5b612c8287828801612b04565b91505092959194509250565b60008060408385031215612ca157600080fd5b6000612caf85828601612ab0565b9250506020612cc085828601612ac5565b9150509250929050565b60008060408385031215612cdd57600080fd5b6000612ceb85828601612ab0565b925050602083013567ffffffffffffffff811115612d0857600080fd5b612d1485828601612b2e565b9150509250929050565b60008060408385031215612d3157600080fd5b6000612d3f85828601612ab0565b9250506020612d5085828601612b4a565b9150509250929050565b600060208284031215612d6c57600080fd5b6000612d7a84828501612ada565b91505092915050565b600060208284031215612d9557600080fd5b6000612da384828501612aef565b91505092915050565b600060208284031215612dbe57600080fd5b6000612dcc84828501612b4a565b91505092915050565b60008060408385031215612de857600080fd5b6000612df685828601612b4a565b9250506020612e0785828601612b4a565b9150509250929050565b6000612e1d838361383b565b60208301905092915050565b612e3281614032565b82525050565b612e4181613f06565b612e4b8184613f34565b9250612e5682613efc565b8060005b83811015612e87578151612e6e8782612e11565b9650612e7983613f27565b925050600181019050612e5a565b505050505050565b612e9881614044565b82525050565b612ea781614050565b82525050565b612ebe612eb982614050565b614184565b82525050565b6000612ed08385613f50565b9350612edd8385846140c7565b82840190509392505050565b6000612ef482613f11565b612efe8185613f3f565b9350612f0e8185602086016140d6565b612f178161427b565b840191505092915050565b612f2b81614086565b82525050565b6000612f3c82613f1c565b612f468185613f5b565b9350612f568185602086016140d6565b612f5f8161427b565b840191505092915050565b6000612f7582613f1c565b612f7f8185613f6c565b9350612f8f8185602086016140d6565b80840191505092915050565b6000612fa8601883613f5b565b91507f45434453413a20696e76616c6964207369676e617475726500000000000000006000830152602082019050919050565b6000612fe8601f83613f5b565b91507f45434453413a20696e76616c6964207369676e6174757265206c656e677468006000830152602082019050919050565b6000613028603283613f5b565b91507f4552433732313a207472616e7366657220746f206e6f6e20455243373231526560008301527f63656976657220696d706c656d656e74657200000000000000000000000000006020830152604082019050919050565b600061308e601c83613f5b565b91507f4552433732313a20746f6b656e20616c7265616479206d696e746564000000006000830152602082019050919050565b60006130ce600283613f6c565b91507f19010000000000000000000000000000000000000000000000000000000000006000830152600282019050919050565b600061310e602483613f5b565b91507f4552433732313a207472616e7366657220746f20746865207a65726f2061646460008301527f72657373000000000000000000000000000000000000000000000000000000006020830152604082019050919050565b6000613174601983613f5b565b91507f4552433732313a20617070726f766520746f2063616c6c6572000000000000006000830152602082019050919050565b60006131b4602283613f5b565b91507f45434453413a20696e76616c6964207369676e6174757265202773272076616c60008301527f75650000000000000000000000000000000000000000000000000000000000006020830152604082019050919050565b600061321a602c83613f5b565b91507f4552433732313a206f70657261746f7220717565727920666f72206e6f6e657860008301527f697374656e7420746f6b656e00000000000000000000000000000000000000006020830152604082019050919050565b6000613280603883613f5b565b91507f4552433732313a20617070726f76652063616c6c6572206973206e6f74206f7760008301527f6e6572206e6f7220617070726f76656420666f7220616c6c00000000000000006020830152604082019050919050565b60006132e6602a83613f5b565b91507f4552433732313a2062616c616e636520717565727920666f7220746865207a6560008301527f726f2061646472657373000000000000000000000000000000000000000000006020830152604082019050919050565b600061334c602983613f5b565b91507f4552433732313a206f776e657220717565727920666f72206e6f6e657869737460008301527f656e7420746f6b656e00000000000000000000000000000000000000000000006020830152604082019050919050565b60006133b2602e83613f5b565b91507f45524337323155524953746f726167653a2055524920736574206f66206e6f6e60008301527f6578697374656e7420746f6b656e0000000000000000000000000000000000006020830152604082019050919050565b6000613418602283613f5b565b91507f45434453413a20696e76616c6964207369676e6174757265202776272076616c60008301527f75650000000000000000000000000000000000000000000000000000000000006020830152604082019050919050565b600061347e601c83613f5b565b91507f496e73756666696369656e742066756e647320746f2072656465656d000000006000830152602082019050919050565b60006134be602083613f5b565b91507f4552433732313a206d696e7420746f20746865207a65726f20616464726573736000830152602082019050919050565b60006134fe603183613f5b565b91507f45524337323155524953746f726167653a2055524920717565727920666f722060008301527f6e6f6e6578697374656e7420746f6b656e0000000000000000000000000000006020830152604082019050919050565b6000613564602c83613f5b565b91507f4552433732313a20617070726f76656420717565727920666f72206e6f6e657860008301527f697374656e7420746f6b656e00000000000000000000000000000000000000006020830152604082019050919050565b60006135ca601183613f5b565b91507f796f7520617265206e6f74206f776e65720000000000000000000000000000006000830152602082019050919050565b600061360a602983613f5b565b91507f4552433732313a207472616e73666572206f6620746f6b656e2074686174206960008301527f73206e6f74206f776e00000000000000000000000000000000000000000000006020830152604082019050919050565b6000613670602f83613f5b565b91507f4552433732314d657461646174613a2055524920717565727920666f72206e6f60008301527f6e6578697374656e7420746f6b656e00000000000000000000000000000000006020830152604082019050919050565b60006136d6602183613f5b565b91507f4552433732313a20617070726f76616c20746f2063757272656e74206f776e6560008301527f72000000000000000000000000000000000000000000000000000000000000006020830152604082019050919050565b600061373c603183613f5b565b91507f4552433732313a207472616e736665722063616c6c6572206973206e6f74206f60008301527f776e6572206e6f7220617070726f7665640000000000000000000000000000006020830152604082019050919050565b60006137a2601d83613f5b565b91507f43616e2774206c6f636b20736f6d656f6e6520656c73652773206e66740000006000830152602082019050919050565b60006137e2602483613f5b565b91507f46756e6374696f6e206f6e6c7920666f7220466967687444696520636f6e747260008301527f61637421000000000000000000000000000000000000000000000000000000006020830152604082019050919050565b613844816140b0565b82525050565b613853816140b0565b82525050565b613862816140ba565b82525050565b6000613875828486612ec4565b91508190509392505050565b600061388d8285612f6a565b91506138998284612f6a565b91508190509392505050565b60006138b0826130c1565b91506138bc8285612ead565b6020820191506138cc8284612ead565b6020820191508190509392505050565b60006020820190506138f16000830184612e29565b92915050565b600060808201905061390c6000830187612e29565b6139196020830186612e29565b613926604083018561384a565b81810360608301526139388184612ee9565b905095945050505050565b6000610140820190506139596000830184612e38565b92915050565b60006020820190506139746000830184612e8f565b92915050565b600060208201905061398f6000830184612e9e565b92915050565b600060a0820190506139aa6000830188612e9e565b6139b76020830187612e9e565b6139c46040830186612e9e565b6139d1606083018561384a565b6139de6080830184612e29565b9695505050505050565b60006060820190506139fd6000830186612e9e565b613a0a602083018561384a565b613a176040830184612e9e565b949350505050565b6000608082019050613a346000830187612e9e565b613a416020830186613859565b613a4e6040830185612e9e565b613a5b6060830184612e9e565b95945050505050565b6000602082019050613a796000830184612f22565b92915050565b60006020820190508181036000830152613a998184612f31565b905092915050565b6000610160820190508181036000830152613abc8185612f31565b9050613acb6020830184612e38565b9392505050565b60006020820190508181036000830152613aeb81612f9b565b9050919050565b60006020820190508181036000830152613b0b81612fdb565b9050919050565b60006020820190508181036000830152613b2b8161301b565b9050919050565b60006020820190508181036000830152613b4b81613081565b9050919050565b60006020820190508181036000830152613b6b81613101565b9050919050565b60006020820190508181036000830152613b8b81613167565b9050919050565b60006020820190508181036000830152613bab816131a7565b9050919050565b60006020820190508181036000830152613bcb8161320d565b9050919050565b60006020820190508181036000830152613beb81613273565b9050919050565b60006020820190508181036000830152613c0b816132d9565b9050919050565b60006020820190508181036000830152613c2b8161333f565b9050919050565b60006020820190508181036000830152613c4b816133a5565b9050919050565b60006020820190508181036000830152613c6b8161340b565b9050919050565b60006020820190508181036000830152613c8b81613471565b9050919050565b60006020820190508181036000830152613cab816134b1565b9050919050565b60006020820190508181036000830152613ccb816134f1565b9050919050565b60006020820190508181036000830152613ceb81613557565b9050919050565b60006020820190508181036000830152613d0b816135bd565b9050919050565b60006020820190508181036000830152613d2b816135fd565b9050919050565b60006020820190508181036000830152613d4b81613663565b9050919050565b60006020820190508181036000830152613d6b816136c9565b9050919050565b60006020820190508181036000830152613d8b8161372f565b9050919050565b60006020820190508181036000830152613dab81613795565b9050919050565b60006020820190508181036000830152613dcb816137d5565b9050919050565b6000602082019050613de7600083018461384a565b92915050565b60008083356001602003843603038112613e0657600080fd5b80840192508235915067ffffffffffffffff821115613e2457600080fd5b602083019250600182023603831315613e3c57600080fd5b509250929050565b60008083356001602003843603038112613e5d57600080fd5b80840192508235915067ffffffffffffffff821115613e7b57600080fd5b602083019250600182023603831315613e9357600080fd5b509250929050565b6000604051905081810181811067ffffffffffffffff82111715613ec257613ec161424c565b5b8060405250919050565b600067ffffffffffffffff821115613ee757613ee661424c565b5b601f19601f8301169050602081019050919050565b6000819050919050565b6000600a9050919050565b600081519050919050565b600081519050919050565b6000602082019050919050565b600081905092915050565b600082825260208201905092915050565b600081905092915050565b600082825260208201905092915050565b600081905092915050565b6000613f82826140b0565b9150613f8d836140b0565b9250827fffffffffffffffffffffffffffffffffffffffffffffffffffffffffffffffff03821115613fc257613fc16141bf565b5b828201905092915050565b6000613fd8826140b0565b9150613fe3836140b0565b925082613ff357613ff26141ee565b5b828204905092915050565b6000614009826140b0565b9150614014836140b0565b925082821015614027576140266141bf565b5b828203905092915050565b600061403d82614090565b9050919050565b60008115159050919050565b6000819050919050565b60007fffffffff0000000000000000000000000000000000000000000000000000000082169050919050565b6000819050919050565b600073ffffffffffffffffffffffffffffffffffffffff82169050919050565b6000819050919050565b600060ff82169050919050565b82818337600083830152505050565b60005b838110156140f45780820151818401526020810190506140d9565b83811115614103576000848401525b50505050565b6000600282049050600182168061412157607f821691505b602082108114156141355761413461421d565b5b50919050565b6000614146826140b0565b91507fffffffffffffffffffffffffffffffffffffffffffffffffffffffffffffffff821415614179576141786141bf565b5b600182019050919050565b6000819050919050565b6000614199826140b0565b91506141a4836140b0565b9250826141b4576141b36141ee565b5b828206905092915050565b7f4e487b7100000000000000000000000000000000000000000000000000000000600052601160045260246000fd5b7f4e487b7100000000000000000000000000000000000000000000000000000000600052601260045260246000fd5b7f4e487b7100000000000000000000000000000000000000000000000000000000600052602260045260246000fd5b7f4e487b7100000000000000000000000000000000000000000000000000000000600052604160045260246000fd5b6000601f19601f8301169050919050565b61429581614032565b81146142a057600080fd5b50565b6142ac81614044565b81146142b757600080fd5b50565b6142c38161405a565b81146142ce57600080fd5b50565b6142da816140b0565b81146142e557600080fd5b5056fea264697066735822122012f0f3cd214ffc1295dc189d6633080341899e5557fc9e296605347cde0529b564736f6c63430008000033",
  "immutableReferences": {
    "3194": [
      {
        "length": 32,
        "start": 9997
      }
    ],
    "3196": [
      {
        "length": 32,
        "start": 9957
      }
    ],
    "3198": [
      {
        "length": 32,
        "start": 10073
      }
    ],
    "3200": [
      {
        "length": 32,
        "start": 10106
      }
    ],
    "3202": [
      {
        "length": 32,
        "start": 10040
      }
    ]
  },
  "source": "pragma solidity ^0.8.0;\npragma abicoder v2; // required to accept structs as function parameters\n\nimport \"openzeppelin-solidity/contracts/token/ERC721/ERC721.sol\";\nimport \"openzeppelin-solidity/contracts/token/ERC721/extensions/ERC721URIStorage.sol\";\nimport \"openzeppelin-solidity/contracts/utils/cryptography/ECDSA.sol\";\nimport \"openzeppelin-solidity/contracts/utils/cryptography/draft-EIP712.sol\";\nimport \"openzeppelin-solidity/contracts/access/AccessControl.sol\";\n\ncontract Nftcontract is ERC721URIStorage, EIP712 {\n    bytes32 public constant MINTER_ROLE = keccak256(\"MINTER_ROLE\");\n    string private SIGNING_DOMAIN;\n    string private constant SIGNATURE_VERSION = \"1\";\n    event MadeContact(address hostaddress, string symbol);\n    uint256 counter = 0;\n    string public eventdata;\n    address public owner;\n    mapping(address => int256) public own;\n    mapping(uint256 => uint256[10]) public power;\n    address private _mastercontract; \n\n\n\n    constructor(\n        string memory symbol,\n        string memory name,\n        string memory uri,\n        string memory sign_domain\n    ) public ERC721(name, symbol) EIP712(SIGNING_DOMAIN, SIGNATURE_VERSION) {\n        own[tx.origin] = 1;\n        SIGNING_DOMAIN = sign_domain;\n        owner = tx.origin;\n    }\n\n     modifier onlyMaster() {\n        require(\n            _mastercontract == msg.sender,\n            \"Function only for FightDie contract!\"\n        );\n        _;\n    }\n\n    /*{\n       \n       \n           _mint(tx.origin, counter);\n        _setTokenURI(counter, uri);\n        SIGNING_DOMAIN = sign_domain;\n       \n    }*/\n\n    function addmaintainer(address addr) public {\n        own[addr] = 1;\n    }\n\n    struct NFTVoucher {\n        uint256 tokenId;\n        string uri;\n        uint256 price;\n        uint256[10] power;\n        bytes signature;\n    }\n\n    function redeem(address redeemer, NFTVoucher calldata voucher)\n        public\n        payable\n        returns (uint256)\n    {\n        address payable signer = payable(_verify(voucher));\n\n        require(msg.value >= voucher.price, \"Insufficient funds to redeem\");\n        power[voucher.tokenId] = voucher.power;\n        // first assign the token to the signer, to establish provenance on-chain\n        // 0 for strength , 1 for stamina\n        _mint(owner, voucher.tokenId);\n        _setTokenURI(voucher.tokenId, voucher.uri);\n\n        // transfer the token to the redeemer\n        _transfer(owner, redeemer, voucher.tokenId);\n        payable(owner).transfer(msg.value);\n\n        // record payment to signer's withdrawal balance\n\n        return voucher.tokenId;\n    }\n\n    function getData(uint256 tokenId)  external view returns (uint256[10] memory){\n        return power[tokenId];\n\n    }\n\n    function getMix(uint256 tokenId) public view returns (string memory x,uint256[10] memory y){\n        return (tokenURI(tokenId),power[tokenId]);\n\n    }\n\n    function lock(uint256 tokenid) external onlyMaster payable{\n\n        require(ownerOf(tokenid) == tx.origin,\"Can't lock someone else's nft\");\n        _transfer(tx.origin,_mastercontract,tokenid);\n    }\n\n    function unlock(uint256 tokenid) external onlyMaster payable{\n\n  \n        _transfer(_mastercontract,tx.origin,tokenid);\n    }\n\n\n    function _hash(NFTVoucher calldata voucher)\n        internal\n        view\n        returns (bytes32)\n    {\n        return\n            _hashTypedDataV4(\n                keccak256(\n                    abi.encode(\n                        keccak256(\n                            \"NFTVoucher(uint256 tokenId,uint256,string uri)\"\n                        ),\n                        voucher.tokenId,\n                        keccak256(bytes(voucher.uri))\n                    )\n                )\n            );\n    }\n\n    function _verify(NFTVoucher calldata voucher)\n        internal\n        view\n        returns (address)\n    {\n        bytes32 digest = _hash(voucher);\n        return ECDSA.recover(digest, voucher.signature);\n    }\n\n     function setMasterContract(address _newmaster)\n        external\n        \n        returns (bool)\n    {\n        require(msg.sender==owner,\"you are not owner\");\n        _mastercontract = _newmaster;\n        return true;\n    }\n\n   \n}\n",
  "sourcePath": "/home/kali/Documents/okex-contract/contracts/Nftcontract.sol",
  "compiler": {
    "name": "solc",
    "version": "0.8.0+commit.c7dfd78e.Emscripten.clang"
  },
  "schemaVersion": "3.4.2",
  "updatedAt": "2021-11-12T19:05:56.976Z",
  "devdoc": {
    "kind": "dev",
    "methods": {
      "approve(address,uint256)": {
        "details": "See {IERC721-approve}."
      },
      "balanceOf(address)": {
        "details": "See {IERC721-balanceOf}."
      },
      "getApproved(uint256)": {
        "details": "See {IERC721-getApproved}."
      },
      "isApprovedForAll(address,address)": {
        "details": "See {IERC721-isApprovedForAll}."
      },
      "name()": {
        "details": "See {IERC721Metadata-name}."
      },
      "ownerOf(uint256)": {
        "details": "See {IERC721-ownerOf}."
      },
      "safeTransferFrom(address,address,uint256)": {
        "details": "See {IERC721-safeTransferFrom}."
      },
      "safeTransferFrom(address,address,uint256,bytes)": {
        "details": "See {IERC721-safeTransferFrom}."
      },
      "setApprovalForAll(address,bool)": {
        "details": "See {IERC721-setApprovalForAll}."
      },
      "supportsInterface(bytes4)": {
        "details": "See {IERC165-supportsInterface}."
      },
      "symbol()": {
        "details": "See {IERC721Metadata-symbol}."
      },
      "tokenURI(uint256)": {
        "details": "See {IERC721Metadata-tokenURI}."
      },
      "transferFrom(address,address,uint256)": {
        "details": "See {IERC721-transferFrom}."
      }
    },
    "version": 1
  },
  "userdoc": {
    "kind": "user",
    "methods": {},
    "version": 1
  }
}