{
  "contractName": "NFTGallery",
  "abi": [
    {
      "inputs": [
        {
          "internalType": "string",
          "name": "symbol",
          "type": "string"
        },
        {
          "internalType": "string",
          "name": "name",
          "type": "string"
        },
        {
          "internalType": "string",
          "name": "uri",
          "type": "string"
        },
        {
          "internalType": "string",
          "name": "sign_domain",
          "type": "string"
        }
      ],
      "stateMutability": "nonpayable",
      "type": "constructor"
    },
    {
      "anonymous": false,
      "inputs": [
        {
          "indexed": true,
          "internalType": "address",
          "name": "owner",
          "type": "address"
        },
        {
          "indexed": true,
          "internalType": "address",
          "name": "approved",
          "type": "address"
        },
        {
          "indexed": true,
          "internalType": "uint256",
          "name": "tokenId",
          "type": "uint256"
        }
      ],
      "name": "Approval",
      "type": "event"
    },
    {
      "anonymous": false,
      "inputs": [
        {
          "indexed": true,
          "internalType": "address",
          "name": "owner",
          "type": "address"
        },
        {
          "indexed": true,
          "internalType": "address",
          "name": "operator",
          "type": "address"
        },
        {
          "indexed": false,
          "internalType": "bool",
          "name": "approved",
          "type": "bool"
        }
      ],
      "name": "ApprovalForAll",
      "type": "event"
    },
    {
      "anonymous": false,
      "inputs": [
        {
          "indexed": false,
          "internalType": "address",
          "name": "hostaddress",
          "type": "address"
        },
        {
          "indexed": false,
          "internalType": "string",
          "name": "symbol",
          "type": "string"
        }
      ],
      "name": "MadeContact",
      "type": "event"
    },
    {
      "anonymous": false,
      "inputs": [
        {
          "indexed": true,
          "internalType": "address",
          "name": "from",
          "type": "address"
        },
        {
          "indexed": true,
          "internalType": "address",
          "name": "to",
          "type": "address"
        },
        {
          "indexed": true,
          "internalType": "uint256",
          "name": "tokenId",
          "type": "uint256"
        }
      ],
      "name": "Transfer",
      "type": "event"
    },
    {
      "inputs": [],
      "name": "MINTER_ROLE",
      "outputs": [
        {
          "internalType": "bytes32",
          "name": "",
          "type": "bytes32"
        }
      ],
      "stateMutability": "view",
      "type": "function"
    },
    {
      "inputs": [
        {
          "internalType": "address",
          "name": "to",
          "type": "address"
        },
        {
          "internalType": "uint256",
          "name": "tokenId",
          "type": "uint256"
        }
      ],
      "name": "approve",
      "outputs": [],
      "stateMutability": "nonpayable",
      "type": "function"
    },
    {
      "inputs": [
        {
          "internalType": "address",
          "name": "owner",
          "type": "address"
        }
      ],
      "name": "balanceOf",
      "outputs": [
        {
          "internalType": "uint256",
          "name": "",
          "type": "uint256"
        }
      ],
      "stateMutability": "view",
      "type": "function"
    },
    {
      "inputs": [],
      "name": "eventdata",
      "outputs": [
        {
          "internalType": "string",
          "name": "",
          "type": "string"
        }
      ],
      "stateMutability": "view",
      "type": "function"
    },
    {
      "inputs": [
        {
          "internalType": "uint256",
          "name": "tokenId",
          "type": "uint256"
        }
      ],
      "name": "getApproved",
      "outputs": [
        {
          "internalType": "address",
          "name": "",
          "type": "address"
        }
      ],
      "stateMutability": "view",
      "type": "function"
    },
    {
      "inputs": [
        {
          "internalType": "address",
          "name": "owner",
          "type": "address"
        },
        {
          "internalType": "address",
          "name": "operator",
          "type": "address"
        }
      ],
      "name": "isApprovedForAll",
      "outputs": [
        {
          "internalType": "bool",
          "name": "",
          "type": "bool"
        }
      ],
      "stateMutability": "view",
      "type": "function"
    },
    {
      "inputs": [],
      "name": "name",
      "outputs": [
        {
          "internalType": "string",
          "name": "",
          "type": "string"
        }
      ],
      "stateMutability": "view",
      "type": "function"
    },
    {
      "inputs": [
        {
          "internalType": "address",
          "name": "",
          "type": "address"
        }
      ],
      "name": "own",
      "outputs": [
        {
          "internalType": "int256",
          "name": "",
          "type": "int256"
        }
      ],
      "stateMutability": "view",
      "type": "function"
    },
    {
      "inputs": [],
      "name": "owner",
      "outputs": [
        {
          "internalType": "address",
          "name": "",
          "type": "address"
        }
      ],
      "stateMutability": "view",
      "type": "function"
    },
    {
      "inputs": [
        {
          "internalType": "uint256",
          "name": "tokenId",
          "type": "uint256"
        }
      ],
      "name": "ownerOf",
      "outputs": [
        {
          "internalType": "address",
          "name": "",
          "type": "address"
        }
      ],
      "stateMutability": "view",
      "type": "function"
    },
    {
      "inputs": [
        {
          "internalType": "uint256",
          "name": "",
          "type": "uint256"
        },
        {
          "internalType": "uint256",
          "name": "",
          "type": "uint256"
        }
      ],
      "name": "power",
      "outputs": [
        {
          "internalType": "uint256",
          "name": "",
          "type": "uint256"
        }
      ],
      "stateMutability": "view",
      "type": "function"
    },
    {
      "inputs": [
        {
          "internalType": "address",
          "name": "from",
          "type": "address"
        },
        {
          "internalType": "address",
          "name": "to",
          "type": "address"
        },
        {
          "internalType": "uint256",
          "name": "tokenId",
          "type": "uint256"
        }
      ],
      "name": "safeTransferFrom",
      "outputs": [],
      "stateMutability": "nonpayable",
      "type": "function"
    },
    {
      "inputs": [
        {
          "internalType": "address",
          "name": "from",
          "type": "address"
        },
        {
          "internalType": "address",
          "name": "to",
          "type": "address"
        },
        {
          "internalType": "uint256",
          "name": "tokenId",
          "type": "uint256"
        },
        {
          "internalType": "bytes",
          "name": "_data",
          "type": "bytes"
        }
      ],
      "name": "safeTransferFrom",
      "outputs": [],
      "stateMutability": "nonpayable",
      "type": "function"
    },
    {
      "inputs": [
        {
          "internalType": "address",
          "name": "operator",
          "type": "address"
        },
        {
          "internalType": "bool",
          "name": "approved",
          "type": "bool"
        }
      ],
      "name": "setApprovalForAll",
      "outputs": [],
      "stateMutability": "nonpayable",
      "type": "function"
    },
    {
      "inputs": [
        {
          "internalType": "bytes4",
          "name": "interfaceId",
          "type": "bytes4"
        }
      ],
      "name": "supportsInterface",
      "outputs": [
        {
          "internalType": "bool",
          "name": "",
          "type": "bool"
        }
      ],
      "stateMutability": "view",
      "type": "function"
    },
    {
      "inputs": [],
      "name": "symbol",
      "outputs": [
        {
          "internalType": "string",
          "name": "",
          "type": "string"
        }
      ],
      "stateMutability": "view",
      "type": "function"
    },
    {
      "inputs": [
        {
          "internalType": "uint256",
          "name": "tokenId",
          "type": "uint256"
        }
      ],
      "name": "tokenURI",
      "outputs": [
        {
          "internalType": "string",
          "name": "",
          "type": "string"
        }
      ],
      "stateMutability": "view",
      "type": "function"
    },
    {
      "inputs": [
        {
          "internalType": "address",
          "name": "from",
          "type": "address"
        },
        {
          "internalType": "address",
          "name": "to",
          "type": "address"
        },
        {
          "internalType": "uint256",
          "name": "tokenId",
          "type": "uint256"
        }
      ],
      "name": "transferFrom",
      "outputs": [],
      "stateMutability": "nonpayable",
      "type": "function"
    },
    {
      "inputs": [
        {
          "internalType": "address",
          "name": "addr",
          "type": "address"
        }
      ],
      "name": "addmaintainer",
      "outputs": [],
      "stateMutability": "nonpayable",
      "type": "function"
    },
    {
      "inputs": [
        {
          "internalType": "address",
          "name": "redeemer",
          "type": "address"
        },
        {
          "components": [
            {
              "internalType": "uint256",
              "name": "tokenId",
              "type": "uint256"
            },
            {
              "internalType": "string",
              "name": "uri",
              "type": "string"
            },
            {
              "internalType": "uint256",
              "name": "price",
              "type": "uint256"
            },
            {
              "internalType": "uint256[10]",
              "name": "power",
              "type": "uint256[10]"
            },
            {
              "internalType": "bytes",
              "name": "signature",
              "type": "bytes"
            }
          ],
          "internalType": "struct NFTGallery.NFTVoucher",
          "name": "voucher",
          "type": "tuple"
        }
      ],
      "name": "redeem",
      "outputs": [
        {
          "internalType": "uint256",
          "name": "",
          "type": "uint256"
        }
      ],
      "stateMutability": "payable",
      "type": "function"
    },
    {
      "inputs": [
        {
          "internalType": "uint256",
          "name": "tokenId",
          "type": "uint256"
        }
      ],
      "name": "getData",
      "outputs": [
        {
          "internalType": "string",
          "name": "",
          "type": "string"
        },
        {
          "internalType": "uint256[10]",
          "name": "",
          "type": "uint256[10]"
        }
      ],
      "stateMutability": "nonpayable",
      "type": "function"
    },
    {
      "inputs": [
        {
          "components": [
            {
              "internalType": "uint256",
              "name": "tokenId",
              "type": "uint256"
            },
            {
              "internalType": "string",
              "name": "uri",
              "type": "string"
            },
            {
              "internalType": "uint256",
              "name": "price",
              "type": "uint256"
            },
            {
              "internalType": "uint256[10]",
              "name": "power",
              "type": "uint256[10]"
            },
            {
              "internalType": "bytes",
              "name": "signature",
              "type": "bytes"
            }
          ],
          "internalType": "struct NFTGallery.NFTVoucher",
          "name": "voucher",
          "type": "tuple"
        }
      ],
      "name": "getmaintainer",
      "outputs": [
        {
          "internalType": "address",
          "name": "",
          "type": "address"
        }
      ],
      "stateMutability": "nonpayable",
      "type": "function"
    }
  ],
  "bytecode": "0x61012060405260006008553480156200001757600080fd5b506040516200451c3803806200451c83398181016040528101906200003d9190620003c0565b600780546200004c9062000605565b80601f01602080910402602001604051908101604052809291908181526020018280546200007a9062000605565b8015620000cb5780601f106200009f57610100808354040283529160200191620000cb565b820191906000526020600020905b815481529060010190602001808311620000ad57829003601f168201915b50505050506040518060400160405280600181526020017f310000000000000000000000000000000000000000000000000000000000000081525084868160009080519060200190620001209291906200029e565b508060019080519060200190620001399291906200029e565b50505060008280519060200120905060008280519060200120905060007f8b73c3c69bb8fe3d512ecc4cf759cc79239f7b179b0ffacaa9a75d522b39400f90508260c081815250508160e081815250504660a08181525050620001a48184846200026260201b60201c565b6080818152505080610100818152505050505050506001600b60003273ffffffffffffffffffffffffffffffffffffffff1673ffffffffffffffffffffffffffffffffffffffff168152602001908152602001600020819055508060079080519060200190620002169291906200029e565b5032600a60006101000a81548173ffffffffffffffffffffffffffffffffffffffff021916908373ffffffffffffffffffffffffffffffffffffffff1602179055505050505062000699565b600083838346306040516020016200027f959493929190620004c3565b6040516020818303038152906040528051906020012090509392505050565b828054620002ac9062000605565b90600052602060002090601f016020900481019282620002d057600085556200031c565b82601f10620002eb57805160ff19168380011785556200031c565b828001600101855582156200031c579182015b828111156200031b578251825591602001919060010190620002fe565b5b5090506200032b91906200032f565b5090565b5b808211156200034a57600081600090555060010162000330565b5090565b6000620003656200035f8462000554565b62000520565b9050828152602081018484840111156200037e57600080fd5b6200038b848285620005cf565b509392505050565b600082601f830112620003a557600080fd5b8151620003b78482602086016200034e565b91505092915050565b60008060008060808587031215620003d757600080fd5b600085015167ffffffffffffffff811115620003f257600080fd5b620004008782880162000393565b945050602085015167ffffffffffffffff8111156200041e57600080fd5b6200042c8782880162000393565b935050604085015167ffffffffffffffff8111156200044a57600080fd5b620004588782880162000393565b925050606085015167ffffffffffffffff8111156200047657600080fd5b620004848782880162000393565b91505092959194509250565b6200049b8162000587565b82525050565b620004ac816200059b565b82525050565b620004bd81620005c5565b82525050565b600060a082019050620004da6000830188620004a1565b620004e96020830187620004a1565b620004f86040830186620004a1565b620005076060830185620004b2565b62000516608083018462000490565b9695505050505050565b6000604051905081810181811067ffffffffffffffff821117156200054a57620005496200066a565b5b8060405250919050565b600067ffffffffffffffff8211156200057257620005716200066a565b5b601f19601f8301169050602081019050919050565b60006200059482620005a5565b9050919050565b6000819050919050565b600073ffffffffffffffffffffffffffffffffffffffff82169050919050565b6000819050919050565b60005b83811015620005ef578082015181840152602081019050620005d2565b83811115620005ff576000848401525b50505050565b600060028204905060018216806200061e57607f821691505b602082108114156200063557620006346200063b565b5b50919050565b7f4e487b7100000000000000000000000000000000000000000000000000000000600052602260045260246000fd5b7f4e487b7100000000000000000000000000000000000000000000000000000000600052604160045260246000fd5b60805160a05160c05160e05161010051613e3e620006de6000396000612379015260006123bb0152600061239a015260006123260152600061234e0152613e3e6000f3fe6080604052600436106101355760003560e01c806385d8d417116100ab578063b8dd93781161006f578063b8dd937814610450578063c04f01fc1461047b578063c87b56dd146104b8578063d5391393146104f5578063e985e9c514610520578063f349e3e31461055d57610135565b806385d8d417146103785780638da5cb5b146103a857806395d89b41146103d3578063a22cb465146103fe578063b88d4fde1461042757610135565b806323b872dd116100fd57806323b872dd1461024657806342842e0e1461026f5780634bf46caf14610298578063569b66f0146102d55780636352211e146102fe57806370a082311461033b57610135565b80630178fe3f1461013a57806301ffc9a71461017857806306fdde03146101b5578063081812fc146101e0578063095ea7b31461021d575b600080fd5b34801561014657600080fd5b50610161600480360381019061015c9190612a2e565b61059a565b60405161016f929190613621565b60405180910390f35b34801561018457600080fd5b5061019f600480360381019061019a919061299b565b610608565b6040516101ac91906134df565b60405180910390f35b3480156101c157600080fd5b506101ca6106ea565b6040516101d791906135ff565b60405180910390f35b3480156101ec57600080fd5b5061020760048036038101906102029190612a2e565b61077c565b6040516102149190613478565b60405180910390f35b34801561022957600080fd5b50610244600480360381019061023f919061295f565b610801565b005b34801561025257600080fd5b5061026d60048036038101906102689190612805565b610919565b005b34801561027b57600080fd5b5061029660048036038101906102919190612805565b610979565b005b3480156102a457600080fd5b506102bf60048036038101906102ba91906129ed565b610999565b6040516102cc9190613478565b60405180910390f35b3480156102e157600080fd5b506102fc60048036038101906102f791906127a0565b6109b0565b005b34801561030a57600080fd5b5061032560048036038101906103209190612a2e565b6109f8565b6040516103329190613478565b60405180910390f35b34801561034757600080fd5b50610362600480360381019061035d91906127a0565b610aaa565b60405161036f91906138f2565b60405180910390f35b610392600480360381019061038d919061290b565b610b62565b60405161039f91906138f2565b60405180910390f35b3480156103b457600080fd5b506103bd610d19565b6040516103ca9190613478565b60405180910390f35b3480156103df57600080fd5b506103e8610d3f565b6040516103f591906135ff565b60405180910390f35b34801561040a57600080fd5b50610425600480360381019061042091906128cf565b610dd1565b005b34801561043357600080fd5b5061044e60048036038101906104499190612854565b610f52565b005b34801561045c57600080fd5b50610465610fb4565b60405161047291906135ff565b60405180910390f35b34801561048757600080fd5b506104a2600480360381019061049d9190612a57565b611042565b6040516104af91906138f2565b60405180910390f35b3480156104c457600080fd5b506104df60048036038101906104da9190612a2e565b61106a565b6040516104ec91906135ff565b60405180910390f35b34801561050157600080fd5b5061050a6111bc565b60405161051791906134fa565b60405180910390f35b34801561052c57600080fd5b50610547600480360381019061054291906127c9565b6111e0565b60405161055491906134df565b60405180910390f35b34801561056957600080fd5b50610584600480360381019061057f91906127a0565b611274565b60405161059191906135e4565b60405180910390f35b60606105a46125ad565b6105ad8361106a565b600c600085815260200190815260200160002080600a806020026040519081016040528092919082600a80156105f8576020028201915b8154815260200190600101908083116105e4575b5050505050905091509150915091565b60007f80ac58cd000000000000000000000000000000000000000000000000000000007bffffffffffffffffffffffffffffffffffffffffffffffffffffffff1916827bffffffffffffffffffffffffffffffffffffffffffffffffffffffff191614806106d357507f5b5e139f000000000000000000000000000000000000000000000000000000007bffffffffffffffffffffffffffffffffffffffffffffffffffffffff1916827bffffffffffffffffffffffffffffffffffffffffffffffffffffffff1916145b806106e357506106e28261128c565b5b9050919050565b6060600080546106f990613c29565b80601f016020809104026020016040519081016040528092919081815260200182805461072590613c29565b80156107725780601f1061074757610100808354040283529160200191610772565b820191906000526020600020905b81548152906001019060200180831161075557829003601f168201915b5050505050905090565b6000610787826112f6565b6107c6576040517f08c379a00000000000000000000000000000000000000000000000000000000081526004016107bd90613852565b60405180910390fd5b6004600083815260200190815260200160002060009054906101000a900473ffffffffffffffffffffffffffffffffffffffff169050919050565b600061080c826109f8565b90508073ffffffffffffffffffffffffffffffffffffffff168373ffffffffffffffffffffffffffffffffffffffff16141561087d576040517f08c379a0000000000000000000000000000000000000000000000000000000008152600401610874906138b2565b60405180910390fd5b8073ffffffffffffffffffffffffffffffffffffffff1661089c611362565b73ffffffffffffffffffffffffffffffffffffffff1614806108cb57506108ca816108c5611362565b6111e0565b5b61090a576040517f08c379a000000000000000000000000000000000000000000000000000000000815260040161090190613752565b60405180910390fd5b610914838361136a565b505050565b61092a610924611362565b82611423565b610969576040517f08c379a0000000000000000000000000000000000000000000000000000000008152600401610960906138d2565b60405180910390fd5b610974838383611501565b505050565b61099483838360405180602001604052806000815250610f52565b505050565b6000806109a58361175d565b905080915050919050565b6001600b60008373ffffffffffffffffffffffffffffffffffffffff1673ffffffffffffffffffffffffffffffffffffffff1681526020019081526020016000208190555050565b6000806002600084815260200190815260200160002060009054906101000a900473ffffffffffffffffffffffffffffffffffffffff169050600073ffffffffffffffffffffffffffffffffffffffff168173ffffffffffffffffffffffffffffffffffffffff161415610aa1576040517f08c379a0000000000000000000000000000000000000000000000000000000008152600401610a9890613792565b60405180910390fd5b80915050919050565b60008073ffffffffffffffffffffffffffffffffffffffff168273ffffffffffffffffffffffffffffffffffffffff161415610b1b576040517f08c379a0000000000000000000000000000000000000000000000000000000008152600401610b1290613772565b60405180910390fd5b600360008373ffffffffffffffffffffffffffffffffffffffff1673ffffffffffffffffffffffffffffffffffffffff168152602001908152602001600020549050919050565b600080610b6e8361175d565b90508260400135341015610bb7576040517f08c379a0000000000000000000000000000000000000000000000000000000008152600401610bae906137f2565b60405180910390fd5b82606001600c60008560000135815260200190815260200160002090600a610be09291906125d0565b50610c11600a60009054906101000a900473ffffffffffffffffffffffffffffffffffffffff1684600001356117d0565b610c718360000135848060200190610c299190613964565b8080601f016020809104026020016040519081016040528093929190818152602001838380828437600081840152601f19601f8201169050808301925050505050505061199e565b610ca2600a60009054906101000a900473ffffffffffffffffffffffffffffffffffffffff16858560000135611501565b600a60009054906101000a900473ffffffffffffffffffffffffffffffffffffffff1673ffffffffffffffffffffffffffffffffffffffff166108fc349081150290604051600060405180830381858888f19350505050158015610d0a573d6000803e3d6000fd5b50826000013591505092915050565b600a60009054906101000a900473ffffffffffffffffffffffffffffffffffffffff1681565b606060018054610d4e90613c29565b80601f0160208091040260200160405190810160405280929190818152602001828054610d7a90613c29565b8015610dc75780601f10610d9c57610100808354040283529160200191610dc7565b820191906000526020600020905b815481529060010190602001808311610daa57829003601f168201915b5050505050905090565b610dd9611362565b73ffffffffffffffffffffffffffffffffffffffff168273ffffffffffffffffffffffffffffffffffffffff161415610e47576040517f08c379a0000000000000000000000000000000000000000000000000000000008152600401610e3e906136f2565b60405180910390fd5b8060056000610e54611362565b73ffffffffffffffffffffffffffffffffffffffff1673ffffffffffffffffffffffffffffffffffffffff16815260200190815260200160002060008473ffffffffffffffffffffffffffffffffffffffff1673ffffffffffffffffffffffffffffffffffffffff16815260200190815260200160002060006101000a81548160ff0219169083151502179055508173ffffffffffffffffffffffffffffffffffffffff16610f01611362565b73ffffffffffffffffffffffffffffffffffffffff167f17307eab39ab6107e8899845ad3d59bd9653f200f220920489ca2b5937696c3183604051610f4691906134df565b60405180910390a35050565b610f63610f5d611362565b83611423565b610fa2576040517f08c379a0000000000000000000000000000000000000000000000000000000008152600401610f99906138d2565b60405180910390fd5b610fae84848484611a12565b50505050565b60098054610fc190613c29565b80601f0160208091040260200160405190810160405280929190818152602001828054610fed90613c29565b801561103a5780601f1061100f5761010080835404028352916020019161103a565b820191906000526020600020905b81548152906001019060200180831161101d57829003601f168201915b505050505081565b600c60205281600052604060002081600a811061105e57600080fd5b01600091509150505481565b6060611075826112f6565b6110b4576040517f08c379a00000000000000000000000000000000000000000000000000000000081526004016110ab90613832565b60405180910390fd5b60006006600084815260200190815260200160002080546110d490613c29565b80601f016020809104026020016040519081016040528092919081815260200182805461110090613c29565b801561114d5780601f106111225761010080835404028352916020019161114d565b820191906000526020600020905b81548152906001019060200180831161113057829003601f168201915b50505050509050600061115e611a6e565b90506000815114156111745781925050506111b7565b6000825111156111a957808260405160200161119192919061341d565b604051602081830303815290604052925050506111b7565b6111b284611a85565b925050505b919050565b7f9f2df0fed2c77648de5860a4cc508cd0818c85b8b8a1ab4ceeef8d981c8956a681565b6000600560008473ffffffffffffffffffffffffffffffffffffffff1673ffffffffffffffffffffffffffffffffffffffff16815260200190815260200160002060008373ffffffffffffffffffffffffffffffffffffffff1673ffffffffffffffffffffffffffffffffffffffff16815260200190815260200160002060009054906101000a900460ff16905092915050565b600b6020528060005260406000206000915090505481565b60007f01ffc9a7000000000000000000000000000000000000000000000000000000007bffffffffffffffffffffffffffffffffffffffffffffffffffffffff1916827bffffffffffffffffffffffffffffffffffffffffffffffffffffffff1916149050919050565b60008073ffffffffffffffffffffffffffffffffffffffff166002600084815260200190815260200160002060009054906101000a900473ffffffffffffffffffffffffffffffffffffffff1673ffffffffffffffffffffffffffffffffffffffff1614159050919050565b600033905090565b816004600083815260200190815260200160002060006101000a81548173ffffffffffffffffffffffffffffffffffffffff021916908373ffffffffffffffffffffffffffffffffffffffff160217905550808273ffffffffffffffffffffffffffffffffffffffff166113dd836109f8565b73ffffffffffffffffffffffffffffffffffffffff167f8c5be1e5ebec7d5bd14f71427d1e84f3dd0314c0f7b2291e5b200ac8c7c3b92560405160405180910390a45050565b600061142e826112f6565b61146d576040517f08c379a000000000000000000000000000000000000000000000000000000000815260040161146490613732565b60405180910390fd5b6000611478836109f8565b90508073ffffffffffffffffffffffffffffffffffffffff168473ffffffffffffffffffffffffffffffffffffffff1614806114e757508373ffffffffffffffffffffffffffffffffffffffff166114cf8461077c565b73ffffffffffffffffffffffffffffffffffffffff16145b806114f857506114f781856111e0565b5b91505092915050565b8273ffffffffffffffffffffffffffffffffffffffff16611521826109f8565b73ffffffffffffffffffffffffffffffffffffffff1614611577576040517f08c379a000000000000000000000000000000000000000000000000000000000815260040161156e90613872565b60405180910390fd5b600073ffffffffffffffffffffffffffffffffffffffff168273ffffffffffffffffffffffffffffffffffffffff1614156115e7576040517f08c379a00000000000000000000000000000000000000000000000000000000081526004016115de906136d2565b60405180910390fd5b6115f2838383611b2c565b6115fd60008261136a565b6001600360008573ffffffffffffffffffffffffffffffffffffffff1673ffffffffffffffffffffffffffffffffffffffff168152602001908152602001600020600082825461164d9190613b1e565b925050819055506001600360008473ffffffffffffffffffffffffffffffffffffffff1673ffffffffffffffffffffffffffffffffffffffff16815260200190815260200160002060008282546116a49190613a97565b92505081905550816002600083815260200190815260200160002060006101000a81548173ffffffffffffffffffffffffffffffffffffffff021916908373ffffffffffffffffffffffffffffffffffffffff160217905550808273ffffffffffffffffffffffffffffffffffffffff168473ffffffffffffffffffffffffffffffffffffffff167fddf252ad1be2c89b69c2b068fc378daa952ba7f163c4a11628f55a4df523b3ef60405160405180910390a4505050565b60008061176983611b31565b90506117c88184806101a00190611780919061390d565b8080601f016020809104026020016040519081016040528093929190818152602001838380828437600081840152601f19601f82011690508083019250505050505050611bb6565b915050919050565b600073ffffffffffffffffffffffffffffffffffffffff168273ffffffffffffffffffffffffffffffffffffffff161415611840576040517f08c379a000000000000000000000000000000000000000000000000000000000815260040161183790613812565b60405180910390fd5b611849816112f6565b15611889576040517f08c379a0000000000000000000000000000000000000000000000000000000008152600401611880906136b2565b60405180910390fd5b61189560008383611b2c565b6001600360008473ffffffffffffffffffffffffffffffffffffffff1673ffffffffffffffffffffffffffffffffffffffff16815260200190815260200160002060008282546118e59190613a97565b92505081905550816002600083815260200190815260200160002060006101000a81548173ffffffffffffffffffffffffffffffffffffffff021916908373ffffffffffffffffffffffffffffffffffffffff160217905550808273ffffffffffffffffffffffffffffffffffffffff16600073ffffffffffffffffffffffffffffffffffffffff167fddf252ad1be2c89b69c2b068fc378daa952ba7f163c4a11628f55a4df523b3ef60405160405180910390a45050565b6119a7826112f6565b6119e6576040517f08c379a00000000000000000000000000000000000000000000000000000000081526004016119dd906137b2565b60405180910390fd5b80600660008481526020019081526020016000209080519060200190611a0d929190612610565b505050565b611a1d848484611501565b611a2984848484611bdd565b611a68576040517f08c379a0000000000000000000000000000000000000000000000000000000008152600401611a5f90613692565b60405180910390fd5b50505050565b606060405180602001604052806000815250905090565b6060611a90826112f6565b611acf576040517f08c379a0000000000000000000000000000000000000000000000000000000008152600401611ac690613892565b60405180910390fd5b6000611ad9611a6e565b90506000815111611af95760405180602001604052806000815250611b24565b80611b0384611d74565b604051602001611b1492919061341d565b6040516020818303038152906040525b915050919050565b505050565b6000611baf7f3f647c7e4c546ce935e0581d90c54fdc05cfc2bdfd67198c592f3c77a79a01178360000135848060200190611b6c9190613964565b604051611b7a929190613404565b6040518091039020604051602001611b9493929190613568565b60405160208183030381529060405280519060200120611f21565b9050919050565b6000806000611bc58585611f3b565b91509150611bd281611fbe565b819250505092915050565b6000611bfe8473ffffffffffffffffffffffffffffffffffffffff1661230f565b15611d67578373ffffffffffffffffffffffffffffffffffffffff1663150b7a02611c27611362565b8786866040518563ffffffff1660e01b8152600401611c499493929190613493565b602060405180830381600087803b158015611c6357600080fd5b505af1925050508015611c9457506040513d601f19601f82011682018060405250810190611c9191906129c4565b60015b611d17573d8060008114611cc4576040519150601f19603f3d011682016040523d82523d6000602084013e611cc9565b606091505b50600081511415611d0f576040517f08c379a0000000000000000000000000000000000000000000000000000000008152600401611d0690613692565b60405180910390fd5b805181602001fd5b63150b7a0260e01b7bffffffffffffffffffffffffffffffffffffffffffffffffffffffff1916817bffffffffffffffffffffffffffffffffffffffffffffffffffffffff191614915050611d6c565b600190505b949350505050565b60606000821415611dbc576040518060400160405280600181526020017f30000000000000000000000000000000000000000000000000000000000000008152509050611f1c565b600082905060005b60008214611dee578080611dd790613c5b565b915050600a82611de79190613aed565b9150611dc4565b60008167ffffffffffffffff811115611e30577f4e487b7100000000000000000000000000000000000000000000000000000000600052604160045260246000fd5b6040519080825280601f01601f191660200182016040528015611e625781602001600182028036833780820191505090505b5090505b60008514611f1557600182611e7b9190613b1e565b9150600a85611e8a9190613cae565b6030611e969190613a97565b60f81b818381518110611ed2577f4e487b7100000000000000000000000000000000000000000000000000000000600052603260045260246000fd5b60200101907effffffffffffffffffffffffffffffffffffffffffffffffffffffffffffff1916908160001a905350600a85611f0e9190613aed565b9450611e66565b8093505050505b919050565b6000611f34611f2e612322565b836123e5565b9050919050565b600080604183511415611f7d5760008060006020860151925060408601519150606086015160001a9050611f7187828585612418565b94509450505050611fb7565b604083511415611fae576000806020850151915060408501519050611fa3868383612525565b935093505050611fb7565b60006002915091505b9250929050565b60006004811115611ff8577f4e487b7100000000000000000000000000000000000000000000000000000000600052602160045260246000fd5b816004811115612031577f4e487b7100000000000000000000000000000000000000000000000000000000600052602160045260246000fd5b141561203c5761230c565b60016004811115612076577f4e487b7100000000000000000000000000000000000000000000000000000000600052602160045260246000fd5b8160048111156120af577f4e487b7100000000000000000000000000000000000000000000000000000000600052602160045260246000fd5b14156120f0576040517f08c379a00000000000000000000000000000000000000000000000000000000081526004016120e790613652565b60405180910390fd5b6002600481111561212a577f4e487b7100000000000000000000000000000000000000000000000000000000600052602160045260246000fd5b816004811115612163577f4e487b7100000000000000000000000000000000000000000000000000000000600052602160045260246000fd5b14156121a4576040517f08c379a000000000000000000000000000000000000000000000000000000000815260040161219b90613672565b60405180910390fd5b600360048111156121de577f4e487b7100000000000000000000000000000000000000000000000000000000600052602160045260246000fd5b816004811115612217577f4e487b7100000000000000000000000000000000000000000000000000000000600052602160045260246000fd5b1415612258576040517f08c379a000000000000000000000000000000000000000000000000000000000815260040161224f90613712565b60405180910390fd5b600480811115612291577f4e487b7100000000000000000000000000000000000000000000000000000000600052602160045260246000fd5b8160048111156122ca577f4e487b7100000000000000000000000000000000000000000000000000000000600052602160045260246000fd5b141561230b576040517f08c379a0000000000000000000000000000000000000000000000000000000008152600401612302906137d2565b60405180910390fd5b5b50565b600080823b905060008111915050919050565b60007f0000000000000000000000000000000000000000000000000000000000000000461415612374577f000000000000000000000000000000000000000000000000000000000000000090506123e2565b6123df7f00000000000000000000000000000000000000000000000000000000000000007f00000000000000000000000000000000000000000000000000000000000000007f0000000000000000000000000000000000000000000000000000000000000000612573565b90505b90565b600082826040516020016123fa929190613441565b60405160208183030381529060405280519060200120905092915050565b6000807f7fffffffffffffffffffffffffffffff5d576e7357a4501ddfe92f46681b20a08360001c111561245357600060039150915061251c565b601b8560ff161415801561246b5750601c8560ff1614155b1561247d57600060049150915061251c565b6000600187878787604051600081526020016040526040516124a2949392919061359f565b6020604051602081039080840390855afa1580156124c4573d6000803e3d6000fd5b505050602060405103519050600073ffffffffffffffffffffffffffffffffffffffff168173ffffffffffffffffffffffffffffffffffffffff1614156125135760006001925092505061251c565b80600092509250505b94509492505050565b6000806000807f7fffffffffffffffffffffffffffffffffffffffffffffffffffffffffffffff85169150601b8560ff1c01905061256587828885612418565b935093505050935093915050565b6000838383463060405160200161258e959493929190613515565b6040516020818303038152906040528051906020012090509392505050565b604051806101400160405280600a90602082028036833780820191505090505090565b82600a81019282156125ff579160200282015b828111156125fe5782358255916020019190600101906125e3565b5b50905061260c9190612696565b5090565b82805461261c90613c29565b90600052602060002090601f01602090048101928261263e5760008555612685565b82601f1061265757805160ff1916838001178555612685565b82800160010185558215612685579182015b82811115612684578251825591602001919060010190612669565b5b5090506126929190612696565b5090565b5b808211156126af576000816000905550600101612697565b5090565b60006126c66126c1846139ec565b6139bb565b9050828152602081018484840111156126de57600080fd5b6126e9848285613be7565b509392505050565b60008135905061270081613dac565b92915050565b60008135905061271581613dc3565b92915050565b60008135905061272a81613dda565b92915050565b60008151905061273f81613dda565b92915050565b600082601f83011261275657600080fd5b81356127668482602086016126b3565b91505092915050565b60006101c0828403121561278257600080fd5b81905092915050565b60008135905061279a81613df1565b92915050565b6000602082840312156127b257600080fd5b60006127c0848285016126f1565b91505092915050565b600080604083850312156127dc57600080fd5b60006127ea858286016126f1565b92505060206127fb858286016126f1565b9150509250929050565b60008060006060848603121561281a57600080fd5b6000612828868287016126f1565b9350506020612839868287016126f1565b925050604061284a8682870161278b565b9150509250925092565b6000806000806080858703121561286a57600080fd5b6000612878878288016126f1565b9450506020612889878288016126f1565b935050604061289a8782880161278b565b925050606085013567ffffffffffffffff8111156128b757600080fd5b6128c387828801612745565b91505092959194509250565b600080604083850312156128e257600080fd5b60006128f0858286016126f1565b925050602061290185828601612706565b9150509250929050565b6000806040838503121561291e57600080fd5b600061292c858286016126f1565b925050602083013567ffffffffffffffff81111561294957600080fd5b6129558582860161276f565b9150509250929050565b6000806040838503121561297257600080fd5b6000612980858286016126f1565b92505060206129918582860161278b565b9150509250929050565b6000602082840312156129ad57600080fd5b60006129bb8482850161271b565b91505092915050565b6000602082840312156129d657600080fd5b60006129e484828501612730565b91505092915050565b6000602082840312156129ff57600080fd5b600082013567ffffffffffffffff811115612a1957600080fd5b612a258482850161276f565b91505092915050565b600060208284031215612a4057600080fd5b6000612a4e8482850161278b565b91505092915050565b60008060408385031215612a6a57600080fd5b6000612a788582860161278b565b9250506020612a898582860161278b565b9150509250929050565b6000612a9f83836133d7565b60208301905092915050565b612ab481613b52565b82525050565b612ac381613a26565b612acd8184613a54565b9250612ad882613a1c565b8060005b83811015612b09578151612af08782612a93565b9650612afb83613a47565b925050600181019050612adc565b505050505050565b612b1a81613b64565b82525050565b612b2981613b70565b82525050565b612b40612b3b82613b70565b613ca4565b82525050565b6000612b528385613a70565b9350612b5f838584613be7565b82840190509392505050565b6000612b7682613a31565b612b808185613a5f565b9350612b90818560208601613bf6565b612b9981613d9b565b840191505092915050565b612bad81613ba6565b82525050565b6000612bbe82613a3c565b612bc88185613a7b565b9350612bd8818560208601613bf6565b612be181613d9b565b840191505092915050565b6000612bf782613a3c565b612c018185613a8c565b9350612c11818560208601613bf6565b80840191505092915050565b6000612c2a601883613a7b565b91507f45434453413a20696e76616c6964207369676e617475726500000000000000006000830152602082019050919050565b6000612c6a601f83613a7b565b91507f45434453413a20696e76616c6964207369676e6174757265206c656e677468006000830152602082019050919050565b6000612caa603283613a7b565b91507f4552433732313a207472616e7366657220746f206e6f6e20455243373231526560008301527f63656976657220696d706c656d656e74657200000000000000000000000000006020830152604082019050919050565b6000612d10601c83613a7b565b91507f4552433732313a20746f6b656e20616c7265616479206d696e746564000000006000830152602082019050919050565b6000612d50600283613a8c565b91507f19010000000000000000000000000000000000000000000000000000000000006000830152600282019050919050565b6000612d90602483613a7b565b91507f4552433732313a207472616e7366657220746f20746865207a65726f2061646460008301527f72657373000000000000000000000000000000000000000000000000000000006020830152604082019050919050565b6000612df6601983613a7b565b91507f4552433732313a20617070726f766520746f2063616c6c6572000000000000006000830152602082019050919050565b6000612e36602283613a7b565b91507f45434453413a20696e76616c6964207369676e6174757265202773272076616c60008301527f75650000000000000000000000000000000000000000000000000000000000006020830152604082019050919050565b6000612e9c602c83613a7b565b91507f4552433732313a206f70657261746f7220717565727920666f72206e6f6e657860008301527f697374656e7420746f6b656e00000000000000000000000000000000000000006020830152604082019050919050565b6000612f02603883613a7b565b91507f4552433732313a20617070726f76652063616c6c6572206973206e6f74206f7760008301527f6e6572206e6f7220617070726f76656420666f7220616c6c00000000000000006020830152604082019050919050565b6000612f68602a83613a7b565b91507f4552433732313a2062616c616e636520717565727920666f7220746865207a6560008301527f726f2061646472657373000000000000000000000000000000000000000000006020830152604082019050919050565b6000612fce602983613a7b565b91507f4552433732313a206f776e657220717565727920666f72206e6f6e657869737460008301527f656e7420746f6b656e00000000000000000000000000000000000000000000006020830152604082019050919050565b6000613034602e83613a7b565b91507f45524337323155524953746f726167653a2055524920736574206f66206e6f6e60008301527f6578697374656e7420746f6b656e0000000000000000000000000000000000006020830152604082019050919050565b600061309a602283613a7b565b91507f45434453413a20696e76616c6964207369676e6174757265202776272076616c60008301527f75650000000000000000000000000000000000000000000000000000000000006020830152604082019050919050565b6000613100601c83613a7b565b91507f496e73756666696369656e742066756e647320746f2072656465656d000000006000830152602082019050919050565b6000613140602083613a7b565b91507f4552433732313a206d696e7420746f20746865207a65726f20616464726573736000830152602082019050919050565b6000613180603183613a7b565b91507f45524337323155524953746f726167653a2055524920717565727920666f722060008301527f6e6f6e6578697374656e7420746f6b656e0000000000000000000000000000006020830152604082019050919050565b60006131e6602c83613a7b565b91507f4552433732313a20617070726f76656420717565727920666f72206e6f6e657860008301527f697374656e7420746f6b656e00000000000000000000000000000000000000006020830152604082019050919050565b600061324c602983613a7b565b91507f4552433732313a207472616e73666572206f6620746f6b656e2074686174206960008301527f73206e6f74206f776e00000000000000000000000000000000000000000000006020830152604082019050919050565b60006132b2602f83613a7b565b91507f4552433732314d657461646174613a2055524920717565727920666f72206e6f60008301527f6e6578697374656e7420746f6b656e00000000000000000000000000000000006020830152604082019050919050565b6000613318602183613a7b565b91507f4552433732313a20617070726f76616c20746f2063757272656e74206f776e6560008301527f72000000000000000000000000000000000000000000000000000000000000006020830152604082019050919050565b600061337e603183613a7b565b91507f4552433732313a207472616e736665722063616c6c6572206973206e6f74206f60008301527f776e6572206e6f7220617070726f7665640000000000000000000000000000006020830152604082019050919050565b6133e081613bd0565b82525050565b6133ef81613bd0565b82525050565b6133fe81613bda565b82525050565b6000613411828486612b46565b91508190509392505050565b60006134298285612bec565b91506134358284612bec565b91508190509392505050565b600061344c82612d43565b91506134588285612b2f565b6020820191506134688284612b2f565b6020820191508190509392505050565b600060208201905061348d6000830184612aab565b92915050565b60006080820190506134a86000830187612aab565b6134b56020830186612aab565b6134c260408301856133e6565b81810360608301526134d48184612b6b565b905095945050505050565b60006020820190506134f46000830184612b11565b92915050565b600060208201905061350f6000830184612b20565b92915050565b600060a08201905061352a6000830188612b20565b6135376020830187612b20565b6135446040830186612b20565b61355160608301856133e6565b61355e6080830184612aab565b9695505050505050565b600060608201905061357d6000830186612b20565b61358a60208301856133e6565b6135976040830184612b20565b949350505050565b60006080820190506135b46000830187612b20565b6135c160208301866133f5565b6135ce6040830185612b20565b6135db6060830184612b20565b95945050505050565b60006020820190506135f96000830184612ba4565b92915050565b600060208201905081810360008301526136198184612bb3565b905092915050565b600061016082019050818103600083015261363c8185612bb3565b905061364b6020830184612aba565b9392505050565b6000602082019050818103600083015261366b81612c1d565b9050919050565b6000602082019050818103600083015261368b81612c5d565b9050919050565b600060208201905081810360008301526136ab81612c9d565b9050919050565b600060208201905081810360008301526136cb81612d03565b9050919050565b600060208201905081810360008301526136eb81612d83565b9050919050565b6000602082019050818103600083015261370b81612de9565b9050919050565b6000602082019050818103600083015261372b81612e29565b9050919050565b6000602082019050818103600083015261374b81612e8f565b9050919050565b6000602082019050818103600083015261376b81612ef5565b9050919050565b6000602082019050818103600083015261378b81612f5b565b9050919050565b600060208201905081810360008301526137ab81612fc1565b9050919050565b600060208201905081810360008301526137cb81613027565b9050919050565b600060208201905081810360008301526137eb8161308d565b9050919050565b6000602082019050818103600083015261380b816130f3565b9050919050565b6000602082019050818103600083015261382b81613133565b9050919050565b6000602082019050818103600083015261384b81613173565b9050919050565b6000602082019050818103600083015261386b816131d9565b9050919050565b6000602082019050818103600083015261388b8161323f565b9050919050565b600060208201905081810360008301526138ab816132a5565b9050919050565b600060208201905081810360008301526138cb8161330b565b9050919050565b600060208201905081810360008301526138eb81613371565b9050919050565b600060208201905061390760008301846133e6565b92915050565b6000808335600160200384360303811261392657600080fd5b80840192508235915067ffffffffffffffff82111561394457600080fd5b60208301925060018202360383131561395c57600080fd5b509250929050565b6000808335600160200384360303811261397d57600080fd5b80840192508235915067ffffffffffffffff82111561399b57600080fd5b6020830192506001820236038313156139b357600080fd5b509250929050565b6000604051905081810181811067ffffffffffffffff821117156139e2576139e1613d6c565b5b8060405250919050565b600067ffffffffffffffff821115613a0757613a06613d6c565b5b601f19601f8301169050602081019050919050565b6000819050919050565b6000600a9050919050565b600081519050919050565b600081519050919050565b6000602082019050919050565b600081905092915050565b600082825260208201905092915050565b600081905092915050565b600082825260208201905092915050565b600081905092915050565b6000613aa282613bd0565b9150613aad83613bd0565b9250827fffffffffffffffffffffffffffffffffffffffffffffffffffffffffffffffff03821115613ae257613ae1613cdf565b5b828201905092915050565b6000613af882613bd0565b9150613b0383613bd0565b925082613b1357613b12613d0e565b5b828204905092915050565b6000613b2982613bd0565b9150613b3483613bd0565b925082821015613b4757613b46613cdf565b5b828203905092915050565b6000613b5d82613bb0565b9050919050565b60008115159050919050565b6000819050919050565b60007fffffffff0000000000000000000000000000000000000000000000000000000082169050919050565b6000819050919050565b600073ffffffffffffffffffffffffffffffffffffffff82169050919050565b6000819050919050565b600060ff82169050919050565b82818337600083830152505050565b60005b83811015613c14578082015181840152602081019050613bf9565b83811115613c23576000848401525b50505050565b60006002820490506001821680613c4157607f821691505b60208210811415613c5557613c54613d3d565b5b50919050565b6000613c6682613bd0565b91507fffffffffffffffffffffffffffffffffffffffffffffffffffffffffffffffff821415613c9957613c98613cdf565b5b600182019050919050565b6000819050919050565b6000613cb982613bd0565b9150613cc483613bd0565b925082613cd457613cd3613d0e565b5b828206905092915050565b7f4e487b7100000000000000000000000000000000000000000000000000000000600052601160045260246000fd5b7f4e487b7100000000000000000000000000000000000000000000000000000000600052601260045260246000fd5b7f4e487b7100000000000000000000000000000000000000000000000000000000600052602260045260246000fd5b7f4e487b7100000000000000000000000000000000000000000000000000000000600052604160045260246000fd5b6000601f19601f8301169050919050565b613db581613b52565b8114613dc057600080fd5b50565b613dcc81613b64565b8114613dd757600080fd5b50565b613de381613b7a565b8114613dee57600080fd5b50565b613dfa81613bd0565b8114613e0557600080fd5b5056fea2646970667358221220880160b2716cdc135a497e35cc3bb43f27ec0ec7fd5b491d0ab1d457db7c68fd64736f6c63430008000033",
  "immutableReferences": {
    "2379": [
      {
        "length": 32,
        "start": 9038
      }
    ],
    "2381": [
      {
        "length": 32,
        "start": 8998
      }
    ],
    "2383": [
      {
        "length": 32,
        "start": 9114
      }
    ],
    "2385": [
      {
        "length": 32,
        "start": 9147
      }
    ],
    "2387": [
      {
        "length": 32,
        "start": 9081
      }
    ]
  },
  "source": "pragma solidity ^0.8.0;\npragma abicoder v2; // required to accept structs as function parameters\n\nimport \"openzeppelin-solidity/contracts/token/ERC721/ERC721.sol\";\nimport \"openzeppelin-solidity/contracts/token/ERC721/extensions/ERC721URIStorage.sol\";\nimport \"openzeppelin-solidity/contracts/utils/cryptography/ECDSA.sol\";\nimport \"openzeppelin-solidity/contracts/utils/cryptography/draft-EIP712.sol\";\nimport \"openzeppelin-solidity/contracts/access/AccessControl.sol\";\n\ncontract NFTGallery is ERC721URIStorage, EIP712 {\n    bytes32 public constant MINTER_ROLE = keccak256(\"MINTER_ROLE\");\n    string private SIGNING_DOMAIN;\n    string private constant SIGNATURE_VERSION = \"1\";\n    event MadeContact(address hostaddress, string symbol);\n    uint256 counter = 0;\n    string public eventdata;\n    address public owner;\n    mapping(address => int256) public own;\n    mapping(uint256 => uint256[10]) public power;\n\n    constructor(\n        string memory symbol,\n        string memory name,\n        string memory uri,\n        string memory sign_domain\n    ) public ERC721(name, symbol) EIP712(SIGNING_DOMAIN, SIGNATURE_VERSION) {\n        own[tx.origin] = 1;\n        SIGNING_DOMAIN = sign_domain;\n        owner = tx.origin;\n    }\n\n    /*{\n       \n       \n           _mint(tx.origin, counter);\n        _setTokenURI(counter, uri);\n        SIGNING_DOMAIN = sign_domain;\n       \n    }*/\n\n    function addmaintainer(address addr) public {\n        own[addr] = 1;\n    }\n\n    struct NFTVoucher {\n        uint256 tokenId;\n        string uri;\n        uint256 price;\n        uint256[10] power;\n        bytes signature;\n    }\n\n    function redeem(address redeemer, NFTVoucher calldata voucher)\n        public\n        payable\n        returns (uint256)\n    {\n        address payable signer = payable(_verify(voucher));\n\n        require(msg.value >= voucher.price, \"Insufficient funds to redeem\");\n        power[voucher.tokenId] = voucher.power;\n        // first assign the token to the signer, to establish provenance on-chain\n        _mint(owner, voucher.tokenId);\n        _setTokenURI(voucher.tokenId, voucher.uri);\n\n        // transfer the token to the redeemer\n        _transfer(owner, redeemer, voucher.tokenId);\n        payable(owner).transfer(msg.value);\n\n        // record payment to signer's withdrawal balance\n\n        return voucher.tokenId;\n    }\n\n    function getData(uint256 tokenId) public returns (string memory,uint256[10] memory){\n        return (tokenURI(tokenId),power[tokenId]);\n\n    }\n\n    function _hash(NFTVoucher calldata voucher)\n        internal\n        view\n        returns (bytes32)\n    {\n        return\n            _hashTypedDataV4(\n                keccak256(\n                    abi.encode(\n                        keccak256(\n                            \"NFTVoucher(uint256 tokenId,uint256,string uri)\"\n                        ),\n                        voucher.tokenId,\n                        keccak256(bytes(voucher.uri))\n                    )\n                )\n            );\n    }\n\n    function _verify(NFTVoucher calldata voucher)\n        internal\n        view\n        returns (address)\n    {\n        bytes32 digest = _hash(voucher);\n        return ECDSA.recover(digest, voucher.signature);\n    }\n\n    function getmaintainer(NFTVoucher calldata voucher)\n        public\n        returns (address)\n    {\n        address signer = (_verify(voucher));\n        return signer;\n    }\n}\n",
  "sourcePath": "/home/kali/Documents/okex-contract/contracts/Nftcontract.sol",
  "compiler": {
    "name": "solc",
    "version": "0.8.0+commit.c7dfd78e.Emscripten.clang"
  },
  "schemaVersion": "3.4.2",
  "updatedAt": "2021-11-11T10:36:25.897Z",
  "devdoc": {
    "kind": "dev",
    "methods": {
      "approve(address,uint256)": {
        "details": "See {IERC721-approve}."
      },
      "balanceOf(address)": {
        "details": "See {IERC721-balanceOf}."
      },
      "getApproved(uint256)": {
        "details": "See {IERC721-getApproved}."
      },
      "isApprovedForAll(address,address)": {
        "details": "See {IERC721-isApprovedForAll}."
      },
      "name()": {
        "details": "See {IERC721Metadata-name}."
      },
      "ownerOf(uint256)": {
        "details": "See {IERC721-ownerOf}."
      },
      "safeTransferFrom(address,address,uint256)": {
        "details": "See {IERC721-safeTransferFrom}."
      },
      "safeTransferFrom(address,address,uint256,bytes)": {
        "details": "See {IERC721-safeTransferFrom}."
      },
      "setApprovalForAll(address,bool)": {
        "details": "See {IERC721-setApprovalForAll}."
      },
      "supportsInterface(bytes4)": {
        "details": "See {IERC165-supportsInterface}."
      },
      "symbol()": {
        "details": "See {IERC721Metadata-symbol}."
      },
      "tokenURI(uint256)": {
        "details": "See {IERC721Metadata-tokenURI}."
      },
      "transferFrom(address,address,uint256)": {
        "details": "See {IERC721-transferFrom}."
      }
    },
    "version": 1
  },
  "userdoc": {
    "kind": "user",
    "methods": {},
    "version": 1
  }
}